20250122 05:52:12.030 - 8=FIXT.1.1|9=90|35=A|34=1|49=FGMLTEST|56=FMSSTEST|52=20250122-05:52:11.993|1137=9|789=1|98=0|108=30|141=Y|10=180|
20250122 05:52:17.472 - 8=FIXT.1.1|9=288|35=8|34=2|49=FGMLTEST|56=FMSSTEST|52=20250122-05:52:17.471|17=106461101|37=106461101|150=4|39=4|40=3|38=1|55=AGTHIAUSD|167=ESVUFR|453=3|448=FGML|447=G|452=22|448=FGML|447=G|452=73|448=237477|447=D|452=3|54=2|59=1|60=20250122-05:51:01.615|151=0|14=0|1=237477|581=1|423=3|99=58|75=20250122|10=060|
20250122 05:52:47.820 - 8=FIXT.1.1|9=59|35=0|34=3|49=FGMLTEST|56=FMSSTEST|52=20250122-05:52:47.820|10=008|
20250122 05:53:18.819 - 8=FIXT.1.1|9=59|35=0|34=4|49=FGMLTEST|56=FMSSTEST|52=20250122-05:53:18.819|10=016|
20250122 05:53:48.820 - 8=FIXT.1.1|9=59|35=0|34=5|49=FGMLTEST|56=FMSSTEST|52=20250122-05:53:48.819|10=020|
20250122 05:54:19.820 - 8=FIXT.1.1|9=59|35=0|34=6|49=FGMLTEST|56=FMSSTEST|52=20250122-05:54:19.819|10=020|
20250122 05:54:50.150 - 8=FIXT.1.1|9=59|35=0|34=7|49=FGMLTEST|56=FMSSTEST|52=20250122-05:54:50.150|10=004|
20250122 05:55:02.250 - 8=FIXT.1.1|9=260|35=d|34=8|49=FGMLTEST|56=FMSSTEST|52=20250122-05:55:02.250|60=20250122-05:55:02.238|75=20250122|1310=1|1301=FGML|1300=FGML|1205=1|1206=0|1207=9999999999.99999|1208=2|55=AGTHIAUSD|207=FGML|48=AEA001901015|22=4|461=ESVUFR|460=5|167=ESVUFR|969=2|107=Agthia Group|10=076|
20250122 05:55:02.277 - 8=FIXT.1.1|9=224|35=f|34=9|49=FGMLTEST|56=FMSSTEST|52=20250122-05:55:02.277|60=20250122-05:55:02.244|75=20250122|1301=FGML|1300=FGML|326=21|1174=6|55=AGTHIAUSD|207=FGML|48=AEA001901015|22=4|461=ESVUFR|460=5|167=ESVUFR|969=2|107=Agthia Group|10=104|
20250122 05:55:33.668 - 8=FIXT.1.1|9=60|35=0|34=10|49=FGMLTEST|56=FMSSTEST|52=20250122-05:55:33.668|10=054|
20250122 05:56:03.820 - 8=FIXT.1.1|9=60|35=0|34=11|49=FGMLTEST|56=FMSSTEST|52=20250122-05:56:03.820|10=043|
20250122 05:56:34.820 - 8=FIXT.1.1|9=60|35=0|34=12|49=FGMLTEST|56=FMSSTEST|52=20250122-05:56:34.820|10=048|
20250122 05:57:05.820 - 8=FIXT.1.1|9=60|35=0|34=13|49=FGMLTEST|56=FMSSTEST|52=20250122-05:57:05.819|10=056|
20250122 05:57:31.177 - 8=FIXT.1.1|9=312|35=8|34=14|49=FGMLTEST|56=FMSSTEST|52=20250122-05:57:31.177|17=106462101|37=106462101|150=0|39=0|40=2|38=1|55=AGTHIAUSD|167=ESVUFR|453=4|448=7|447=C|452=1|448=FGML|447=G|452=22|448=FGML|447=G|452=73|448=163182|447=D|452=12|54=1|59=1|60=20250122-05:57:31.103|151=1|14=0|6=0|1=163182|581=2|423=3|44=60|75=20250122|10=083|
20250122 05:57:31.228 - 8=FIXT.1.1|9=293|35=8|34=15|49=FGMLTEST|56=FMSSTEST|52=20250122-05:57:31.228|17=106463101|37=106463101|150=0|39=0|40=2|38=1|55=AGTHIAUSD|167=ESVUFR|453=3|448=FGML|447=G|452=22|448=FGML|447=G|452=73|448=237477|447=D|452=3|54=2|59=1|60=20250122-05:57:31.109|151=1|14=0|6=0|1=237477|581=1|423=3|44=60|75=20250122|10=003|
20250122 05:57:31.231 - 8=FIXT.1.1|9=294|35=8|34=16|49=FGMLTEST|56=FMSSTEST|52=20250122-05:57:31.231|17=106463101|37=106463101|150=5|39=2|40=2|38=1|55=AGTHIAUSD|167=ESVUFR|453=3|448=FGML|447=G|452=22|448=FGML|447=G|452=73|448=237477|447=D|452=3|54=2|59=1|60=20250122-05:57:31.109|151=0|14=1|6=60|1=237477|581=1|423=3|44=60|75=20250122|10=060|
20250122 05:57:31.235 - 8=FIXT.1.1|9=313|35=8|34=17|49=FGMLTEST|56=FMSSTEST|52=20250122-05:57:31.235|17=106462101|37=106462101|150=5|39=2|40=2|38=1|55=AGTHIAUSD|167=ESVUFR|453=4|448=7|447=C|452=1|448=FGML|447=G|452=22|448=FGML|447=G|452=73|448=163182|447=D|452=12|54=1|59=1|60=20250122-05:57:31.109|151=0|14=1|6=60|1=163182|581=2|423=3|44=60|75=20250122|10=149|
20250122 05:57:31.242 - 8=FIXT.1.1|9=491|35=AE|34=18|49=FGMLTEST|56=FMSSTEST|52=20250122-05:57:31.242|32=1|31=60|423=3|1116=1|1117=FGML|1118=D|1119=73|55=AGTHIAUSD|167=ESVUFR|60=20250122-05:57:31.109|487=0|1003=106462101-106463101|1301=FGML|1300=FGML|552=2|54=2|453=3|448=FGML|447=G|452=22|448=FGML|447=G|452=73|448=237477|447=D|452=3|1=237477|581=1|1057=Y|37=106463101|151=0|54=1|453=4|448=7|447=C|452=1|448=FGML|447=G|452=22|448=FGML|447=G|452=73|448=163182|447=D|452=12|1=163182|581=2|1057=N|37=106462101|151=0|75=20250122|574=4|10=122|
20250122 05:57:31.336 - 8=FIXT.1.1|9=293|35=8|34=19|49=FGMLTEST|56=FMSSTEST|52=20250122-05:57:31.336|17=106464101|37=106464101|150=0|39=0|40=2|38=1|55=AGTHIAUSD|167=ESVUFR|453=3|448=FGML|447=G|452=22|448=FGML|447=G|452=73|448=237477|447=D|452=3|54=2|59=1|60=20250122-05:57:31.113|151=1|14=0|6=0|1=237477|581=1|423=3|44=62|75=20250122|10=006|
20250122 05:58:00.790 - 8=FIXT.1.1|9=231|35=f|34=20|49=FGMLTEST|56=FMSSTEST|52=20250122-05:58:00.790|60=20250122-05:58:00.789|75=20250122|1301=FGML|1300=FGML|31=60|326=17|1174=6|55=AGTHIAUSD|207=FGML|48=AEA001901015|22=4|461=ESVUFR|460=5|167=ESVUFR|969=2|107=Agthia Group|10=172|
20250122 05:58:00.795 - 8=FIXT.1.1|9=240|35=f|34=21|49=FGMLTEST|56=FMSSTEST|52=20250122-05:58:00.795|60=20250122-05:58:00.789|75=20250122|1301=FGML|1300=FGML|31=60|58=OPENING_PRICE|326=5|55=AGTHIAUSD|207=FGML|48=AEA001901015|22=4|461=ESVUFR|460=5|167=ESVUFR|969=2|107=Agthia Group|10=203|
20250122 05:58:30.819 - 8=FIXT.1.1|9=60|35=0|34=22|49=FGMLTEST|56=FMSSTEST|52=20250122-05:58:30.819|10=055|
20250122 05:58:33.473 - 8=FIXT.1.1|9=312|35=8|34=23|49=FGMLTEST|56=FMSSTEST|52=20250122-05:58:33.473|17=106465101|37=106465101|150=0|39=0|40=2|38=1|55=AGTHIAUSD|167=ESVUFR|453=4|448=7|447=C|452=1|448=FGML|447=G|452=22|448=FGML|447=G|452=73|448=163182|447=D|452=12|54=1|59=1|60=20250122-05:58:33.423|151=1|14=0|6=0|1=163182|581=2|423=3|44=62|75=20250122|10=101|
20250122 05:58:33.475 - 8=FIXT.1.1|9=294|35=8|34=24|49=FGMLTEST|56=FMSSTEST|52=20250122-05:58:33.475|17=106464101|37=106464101|150=5|39=2|40=2|38=1|55=AGTHIAUSD|167=ESVUFR|453=3|448=FGML|447=G|452=22|448=FGML|447=G|452=73|448=237477|447=D|452=3|54=2|59=1|60=20250122-05:58:33.423|151=0|14=1|6=62|1=237477|581=1|423=3|44=62|75=20250122|10=080|
20250122 05:58:33.477 - 8=FIXT.1.1|9=313|35=8|34=25|49=FGMLTEST|56=FMSSTEST|52=20250122-05:58:33.477|17=106465101|37=106465101|150=5|39=2|40=2|38=1|55=AGTHIAUSD|167=ESVUFR|453=4|448=7|447=C|452=1|448=FGML|447=G|452=22|448=FGML|447=G|452=73|448=163182|447=D|452=12|54=1|59=1|60=20250122-05:58:33.423|151=0|14=1|6=62|1=163182|581=2|423=3|44=62|75=20250122|10=171|
20250122 05:58:33.479 - 8=FIXT.1.1|9=491|35=AE|34=26|49=FGMLTEST|56=FMSSTEST|52=20250122-05:58:33.479|32=1|31=62|423=3|1116=1|1117=FGML|1118=D|1119=73|55=AGTHIAUSD|167=ESVUFR|60=20250122-05:58:33.423|487=0|1003=106465101-106464101|1301=FGML|1300=FGML|552=2|54=2|453=3|448=FGML|447=G|452=22|448=FGML|447=G|452=73|448=237477|447=D|452=3|1=237477|581=1|1057=N|37=106464101|151=0|54=1|453=4|448=7|447=C|452=1|448=FGML|447=G|452=22|448=FGML|447=G|452=73|448=163182|447=D|452=12|1=163182|581=2|1057=Y|37=106465101|151=0|75=20250122|574=4|10=148|
20250122 05:59:03.819 - 8=FIXT.1.1|9=60|35=0|34=27|49=FGMLTEST|56=FMSSTEST|52=20250122-05:59:03.819|10=061|
20250122 05:59:33.819 - 8=FIXT.1.1|9=60|35=0|34=28|49=FGMLTEST|56=FMSSTEST|52=20250122-05:59:33.819|10=065|
20250122 06:00:03.820 - 8=FIXT.1.1|9=60|35=0|34=29|49=FGMLTEST|56=FMSSTEST|52=20250122-06:00:03.820|10=042|
20250122 06:00:34.819 - 8=FIXT.1.1|9=60|35=0|34=30|49=FGMLTEST|56=FMSSTEST|52=20250122-06:00:34.819|10=046|
20250122 06:01:04.819 - 8=FIXT.1.1|9=60|35=0|34=31|49=FGMLTEST|56=FMSSTEST|52=20250122-06:01:04.819|10=045|
20250122 06:01:19.858 - 8=FIXT.1.1|9=312|35=8|34=32|49=FGMLTEST|56=FMSSTEST|52=20250122-06:01:19.857|17=106466101|37=106466101|150=0|39=0|40=2|38=1|55=AGTHIAUSD|167=ESVUFR|453=4|448=7|447=C|452=1|448=FGML|447=G|452=22|448=FGML|447=G|452=73|448=163182|447=D|452=12|54=1|59=3|60=20250122-06:01:19.814|151=1|14=0|6=0|1=163182|581=2|423=3|44=62|75=20250122|10=101|
20250122 06:01:19.860 - 8=FIXT.1.1|9=312|35=8|34=33|49=FGMLTEST|56=FMSSTEST|52=20250122-06:01:19.860|17=106466101|37=106466101|150=4|39=4|40=2|38=1|55=AGTHIAUSD|167=ESVUFR|453=4|448=7|447=C|452=1|448=FGML|447=G|452=22|448=FGML|447=G|452=73|448=163182|447=D|452=12|54=1|59=3|60=20250122-06:01:19.814|151=0|14=0|6=0|1=163182|581=2|423=3|44=62|75=20250122|10=103|
20250122 06:01:36.113 - 8=FIXT.1.1|9=293|35=8|34=34|49=FGMLTEST|56=FMSSTEST|52=20250122-06:01:36.113|17=106467101|37=106467101|150=0|39=0|40=2|38=2|55=AGTHIAUSD|167=ESVUFR|453=3|448=FGML|447=G|452=22|448=FGML|447=G|452=73|448=237477|447=D|452=3|54=2|59=1|60=20250122-06:01:34.999|151=2|14=0|6=0|1=237477|581=1|423=3|44=62|75=20250122|10=014|
20250122 06:01:54.813 - 8=FIXT.1.1|9=312|35=8|34=35|49=FGMLTEST|56=FMSSTEST|52=20250122-06:01:54.813|17=106468101|37=106468101|150=0|39=0|40=2|38=1|55=AGTHIAUSD|167=ESVUFR|453=4|448=7|447=C|452=1|448=FGML|447=G|452=22|448=FGML|447=G|452=73|448=163182|447=D|452=12|54=1|59=3|60=20250122-06:01:54.773|151=1|14=0|6=0|1=163182|581=2|423=3|44=62|75=20250122|10=102|
20250122 06:01:54.815 - 8=FIXT.1.1|9=294|35=8|34=36|49=FGMLTEST|56=FMSSTEST|52=20250122-06:01:54.814|17=106467101|37=106467101|150=5|39=1|40=2|38=2|55=AGTHIAUSD|167=ESVUFR|453=3|448=FGML|447=G|452=22|448=FGML|447=G|452=73|448=237477|447=D|452=3|54=2|59=1|60=20250122-06:01:54.773|151=1|14=1|6=62|1=237477|581=1|423=3|44=62|75=20250122|10=079|
20250122 06:01:54.816 - 8=FIXT.1.1|9=313|35=8|34=37|49=FGMLTEST|56=FMSSTEST|52=20250122-06:01:54.816|17=106468101|37=106468101|150=5|39=2|40=2|38=1|55=AGTHIAUSD|167=ESVUFR|453=4|448=7|447=C|452=1|448=FGML|447=G|452=22|448=FGML|447=G|452=73|448=163182|447=D|452=12|54=1|59=3|60=20250122-06:01:54.773|151=0|14=1|6=62|1=163182|581=2|423=3|44=62|75=20250122|10=171|
20250122 06:01:54.819 - 8=FIXT.1.1|9=491|35=AE|34=38|49=FGMLTEST|56=FMSSTEST|52=20250122-06:01:54.819|32=1|31=62|423=3|1116=1|1117=FGML|1118=D|1119=73|55=AGTHIAUSD|167=ESVUFR|60=20250122-06:01:54.773|487=0|1003=106468101-106467101|1301=FGML|1300=FGML|552=2|54=2|453=3|448=FGML|447=G|452=22|448=FGML|447=G|452=73|448=237477|447=D|452=3|1=237477|581=1|1057=N|37=106467101|151=1|54=1|453=4|448=7|447=C|452=1|448=FGML|447=G|452=22|448=FGML|447=G|452=73|448=163182|447=D|452=12|1=163182|581=2|1057=Y|37=106468101|151=0|75=20250122|574=4|10=154|
20250122 06:02:24.819 - 8=FIXT.1.1|9=60|35=0|34=39|49=FGMLTEST|56=FMSSTEST|52=20250122-06:02:24.819|10=056|
20250122 06:02:40.923 - 8=FIXT.1.1|9=312|35=8|34=40|49=FGMLTEST|56=FMSSTEST|52=20250122-06:02:40.923|17=106469101|37=106469101|150=0|39=0|40=2|38=2|55=AGTHIAUSD|167=ESVUFR|453=4|448=7|447=C|452=1|448=FGML|447=G|452=22|448=FGML|447=G|452=73|448=163182|447=D|452=12|54=1|59=3|60=20250122-06:02:40.876|151=2|14=0|6=0|1=163182|581=2|423=3|44=62|75=20250122|10=100|
20250122 06:02:40.925 - 8=FIXT.1.1|9=294|35=8|34=41|49=FGMLTEST|56=FMSSTEST|52=20250122-06:02:40.925|17=106467101|37=106467101|150=5|39=2|40=2|38=2|55=AGTHIAUSD|167=ESVUFR|453=3|448=FGML|447=G|452=22|448=FGML|447=G|452=73|448=237477|447=D|452=3|54=2|59=1|60=20250122-06:02:40.876|151=0|14=2|6=62|1=237477|581=1|423=3|44=62|75=20250122|10=075|
20250122 06:02:40.927 - 8=FIXT.1.1|9=313|35=8|34=42|49=FGMLTEST|56=FMSSTEST|52=20250122-06:02:40.927|17=106469101|37=106469101|150=5|39=1|40=2|38=2|55=AGTHIAUSD|167=ESVUFR|453=4|448=7|447=C|452=1|448=FGML|447=G|452=22|448=FGML|447=G|452=73|448=163182|447=D|452=12|54=1|59=3|60=20250122-06:02:40.876|151=1|14=1|6=62|1=163182|581=2|423=3|44=62|75=20250122|10=169|
20250122 06:02:40.929 - 8=FIXT.1.1|9=491|35=AE|34=43|49=FGMLTEST|56=FMSSTEST|52=20250122-06:02:40.928|32=1|31=62|423=3|1116=1|1117=FGML|1118=D|1119=73|55=AGTHIAUSD|167=ESVUFR|60=20250122-06:02:40.876|487=0|1003=106469101-106467101|1301=FGML|1300=FGML|552=2|54=2|453=3|448=FGML|447=G|452=22|448=FGML|447=G|452=73|448=237477|447=D|452=3|1=237477|581=1|1057=N|37=106467101|151=0|54=1|453=4|448=7|447=C|452=1|448=FGML|447=G|452=22|448=FGML|447=G|452=73|448=163182|447=D|452=12|1=163182|581=2|1057=Y|37=106469101|151=1|75=20250122|574=4|10=149|
20250122 06:02:40.931 - 8=FIXT.1.1|9=313|35=8|34=44|49=FGMLTEST|56=FMSSTEST|52=20250122-06:02:40.931|17=106469101|37=106469101|150=4|39=4|40=2|38=2|55=AGTHIAUSD|167=ESVUFR|453=4|448=7|447=C|452=1|448=FGML|447=G|452=22|448=FGML|447=G|452=73|448=163182|447=D|452=12|54=1|59=3|60=20250122-06:02:40.876|151=0|14=1|6=62|1=163182|581=2|423=3|44=62|75=20250122|10=167|
20250122 06:03:11.820 - 8=FIXT.1.1|9=60|35=0|34=45|49=FGMLTEST|56=FMSSTEST|52=20250122-06:03:11.819|10=050|
20250122 06:03:42.819 - 8=FIXT.1.1|9=60|35=0|34=46|49=FGMLTEST|56=FMSSTEST|52=20250122-06:03:42.819|10=055|
20250122 06:04:12.819 - 8=FIXT.1.1|9=60|35=0|34=47|49=FGMLTEST|56=FMSSTEST|52=20250122-06:04:12.819|10=054|
20250122 06:04:17.147 - 8=FIXT.1.1|9=293|35=8|34=48|49=FGMLTEST|56=FMSSTEST|52=20250122-06:04:17.146|17=106470101|37=106470101|150=0|39=0|40=2|38=2|55=AGTHIAUSD|167=ESVUFR|453=3|448=FGML|447=G|452=22|448=FGML|447=G|452=73|448=237477|447=D|452=3|54=2|59=1|60=20250122-06:04:17.108|151=2|14=0|6=0|1=237477|581=1|423=3|44=60|75=20250122|10=255|
20250122 06:04:47.819 - 8=FIXT.1.1|9=60|35=0|34=49|49=FGMLTEST|56=FMSSTEST|52=20250122-06:04:47.819|10=064|
20250122 06:04:49.703 - 8=FIXT.1.1|9=312|35=8|34=50|49=FGMLTEST|56=FMSSTEST|52=20250122-06:04:49.703|17=106471101|37=106471101|150=0|39=0|40=2|38=1|55=AGTHIAUSD|167=ESVUFR|453=4|448=7|447=C|452=1|448=FGML|447=G|452=22|448=FGML|447=G|452=73|448=163182|447=D|452=12|54=1|59=4|60=20250122-06:04:49.663|151=1|14=0|6=0|1=163182|581=2|423=3|44=60|75=20250122|10=096|
20250122 06:04:49.705 - 8=FIXT.1.1|9=294|35=8|34=51|49=FGMLTEST|56=FMSSTEST|52=20250122-06:04:49.705|17=106470101|37=106470101|150=5|39=1|40=2|38=2|55=AGTHIAUSD|167=ESVUFR|453=3|448=FGML|447=G|452=22|448=FGML|447=G|452=73|448=237477|447=D|452=3|54=2|59=1|60=20250122-06:04:49.663|151=1|14=1|6=60|1=237477|581=1|423=3|44=60|75=20250122|10=071|
20250122 06:04:49.707 - 8=FIXT.1.1|9=313|35=8|34=52|49=FGMLTEST|56=FMSSTEST|52=20250122-06:04:49.707|17=106471101|37=106471101|150=5|39=2|40=2|38=1|55=AGTHIAUSD|167=ESVUFR|453=4|448=7|447=C|452=1|448=FGML|447=G|452=22|448=FGML|447=G|452=73|448=163182|447=D|452=12|54=1|59=4|60=20250122-06:04:49.663|151=0|14=1|6=60|1=163182|581=2|423=3|44=60|75=20250122|10=164|
20250122 06:04:49.709 - 8=FIXT.1.1|9=491|35=AE|34=53|49=FGMLTEST|56=FMSSTEST|52=20250122-06:04:49.709|32=1|31=60|423=3|1116=1|1117=FGML|1118=D|1119=73|55=AGTHIAUSD|167=ESVUFR|60=20250122-06:04:49.663|487=0|1003=106471101-106470101|1301=FGML|1300=FGML|552=2|54=2|453=3|448=FGML|447=G|452=22|448=FGML|447=G|452=73|448=237477|447=D|452=3|1=237477|581=1|1057=N|37=106470101|151=1|54=1|453=4|448=7|447=C|452=1|448=FGML|447=G|452=22|448=FGML|447=G|452=73|448=163182|447=D|452=12|1=163182|581=2|1057=Y|37=106471101|151=0|75=20250122|574=4|10=135|
20250122 06:05:05.551 - 8=FIXT.1.1|9=312|35=8|34=54|49=FGMLTEST|56=FMSSTEST|52=20250122-06:05:05.551|17=106472101|37=106472101|150=0|39=0|40=2|38=2|55=AGTHIAUSD|167=ESVUFR|453=4|448=7|447=C|452=1|448=FGML|447=G|452=22|448=FGML|447=G|452=73|448=163182|447=D|452=12|54=1|59=4|60=20250122-06:05:05.515|151=2|14=0|6=0|1=163182|581=2|423=3|44=60|75=20250122|10=087|
20250122 06:05:05.555 - 8=FIXT.1.1|9=312|35=8|34=55|49=FGMLTEST|56=FMSSTEST|52=20250122-06:05:05.555|17=106472101|37=106472101|150=4|39=4|40=2|38=2|55=AGTHIAUSD|167=ESVUFR|453=4|448=7|447=C|452=1|448=FGML|447=G|452=22|448=FGML|447=G|452=73|448=163182|447=D|452=12|54=1|59=4|60=20250122-06:05:05.515|151=0|14=0|6=0|1=163182|581=2|423=3|44=60|75=20250122|10=098|
20250122 06:05:13.374 - 8=FIXT.1.1|9=294|35=8|34=56|49=FGMLTEST|56=FMSSTEST|52=20250122-06:05:13.374|17=106470101|37=106470101|150=4|39=4|40=2|38=2|55=AGTHIAUSD|167=ESVUFR|453=3|448=FGML|447=G|452=22|448=FGML|447=G|452=73|448=237477|447=D|452=3|54=2|59=1|60=20250122-06:05:13.341|151=0|14=1|6=60|1=237477|581=1|423=3|44=60|75=20250122|10=056|
20250122 06:05:43.819 - 8=FIXT.1.1|9=60|35=0|34=57|49=FGMLTEST|56=FMSSTEST|52=20250122-06:05:43.819|10=060|
20250122 06:06:13.819 - 8=FIXT.1.1|9=60|35=0|34=58|49=FGMLTEST|56=FMSSTEST|52=20250122-06:06:13.819|10=059|
20250122 06:06:43.819 - 8=FIXT.1.1|9=60|35=0|34=59|49=FGMLTEST|56=FMSSTEST|52=20250122-06:06:43.819|10=063|
20250122 06:06:45.433 - 8=FIXT.1.1|9=312|35=8|34=60|49=FGMLTEST|56=FMSSTEST|52=20250122-06:06:45.433|17=106473101|37=106473101|150=0|39=0|40=2|38=1|55=AGTHIAUSD|167=ESVUFR|453=4|448=7|447=C|452=1|448=FGML|447=G|452=22|448=FGML|447=G|452=73|448=163182|447=D|452=12|54=2|59=1|60=20250122-06:06:44.776|151=1|14=0|6=0|1=163182|581=2|423=3|44=60|75=20250122|10=099|
20250122 06:07:00.653 - 8=FIXT.1.1|9=293|35=8|34=61|49=FGMLTEST|56=FMSSTEST|52=20250122-06:07:00.653|17=106474101|37=106474101|150=0|39=0|40=2|38=1|55=AGTHIAUSD|167=ESVUFR|453=3|448=FGML|447=G|452=22|448=FGML|447=G|452=73|448=237477|447=D|452=3|54=1|59=1|60=20250122-06:07:00.614|151=1|14=0|6=0|1=237477|581=1|423=3|44=60|75=20250122|10=250|
20250122 06:07:00.657 - 8=FIXT.1.1|9=313|35=8|34=62|49=FGMLTEST|56=FMSSTEST|52=20250122-06:07:00.657|17=106473101|37=106473101|150=5|39=2|40=2|38=1|55=AGTHIAUSD|167=ESVUFR|453=4|448=7|447=C|452=1|448=FGML|447=G|452=22|448=FGML|447=G|452=73|448=163182|447=D|452=12|54=2|59=1|60=20250122-06:07:00.614|151=0|14=1|6=60|1=163182|581=2|423=3|44=60|75=20250122|10=147|
20250122 06:07:00.660 - 8=FIXT.1.1|9=294|35=8|34=63|49=FGMLTEST|56=FMSSTEST|52=20250122-06:07:00.660|17=106474101|37=106474101|150=5|39=2|40=2|38=1|55=AGTHIAUSD|167=ESVUFR|453=3|448=FGML|447=G|452=22|448=FGML|447=G|452=73|448=237477|447=D|452=3|54=1|59=1|60=20250122-06:07:00.614|151=0|14=1|6=60|1=237477|581=1|423=3|44=60|75=20250122|10=056|
20250122 06:07:00.664 - 8=FIXT.1.1|9=491|35=AE|34=64|49=FGMLTEST|56=FMSSTEST|52=20250122-06:07:00.664|32=1|31=60|423=3|1116=1|1117=FGML|1118=D|1119=73|55=AGTHIAUSD|167=ESVUFR|60=20250122-06:07:00.614|487=0|1003=106474101-106473101|1301=FGML|1300=FGML|552=2|54=2|453=4|448=7|447=C|452=1|448=FGML|447=G|452=22|448=FGML|447=G|452=73|448=163182|447=D|452=12|1=163182|581=2|1057=N|37=106473101|151=0|54=1|453=3|448=FGML|447=G|452=22|448=FGML|447=G|452=73|448=237477|447=D|452=3|1=237477|581=1|1057=Y|37=106474101|151=0|75=20250122|574=4|10=124|
20250122 06:07:17.973 - 8=FIXT.1.1|9=312|35=8|34=65|49=FGMLTEST|56=FMSSTEST|52=20250122-06:07:17.973|17=106475101|37=106475101|150=0|39=0|40=2|38=2|55=AGTHIAUSD|167=ESVUFR|453=4|448=7|447=C|452=1|448=FGML|447=G|452=22|448=FGML|447=G|452=73|448=163182|447=D|452=12|54=2|59=1|60=20250122-06:07:17.939|151=2|14=0|6=0|1=163182|581=2|423=3|44=60|75=20250122|10=121|
20250122 06:07:29.455 - 8=FIXT.1.1|9=293|35=8|34=66|49=FGMLTEST|56=FMSSTEST|52=20250122-06:07:29.455|17=106476101|37=106476101|150=0|39=0|40=2|38=1|55=AGTHIAUSD|167=ESVUFR|453=3|448=FGML|447=G|452=22|448=FGML|447=G|452=73|448=237477|447=D|452=3|54=1|59=1|60=20250122-06:07:28.556|151=1|14=0|6=0|1=237477|581=1|423=3|44=60|75=20250122|10=029|
20250122 06:07:29.459 - 8=FIXT.1.1|9=313|35=8|34=67|49=FGMLTEST|56=FMSSTEST|52=20250122-06:07:29.459|17=106475101|37=106475101|150=5|39=1|40=2|38=2|55=AGTHIAUSD|167=ESVUFR|453=4|448=7|447=C|452=1|448=FGML|447=G|452=22|448=FGML|447=G|452=73|448=163182|447=D|452=12|54=2|59=1|60=20250122-06:07:28.556|151=1|14=1|6=60|1=163182|581=2|423=3|44=60|75=20250122|10=183|
20250122 06:07:29.462 - 8=FIXT.1.1|9=294|35=8|34=68|49=FGMLTEST|56=FMSSTEST|52=20250122-06:07:29.462|17=106476101|37=106476101|150=5|39=2|40=2|38=1|55=AGTHIAUSD|167=ESVUFR|453=3|448=FGML|447=G|452=22|448=FGML|447=G|452=73|448=237477|447=D|452=3|54=1|59=1|60=20250122-06:07:28.556|151=0|14=1|6=60|1=237477|581=1|423=3|44=60|75=20250122|10=091|
20250122 06:07:29.465 - 8=FIXT.1.1|9=491|35=AE|34=69|49=FGMLTEST|56=FMSSTEST|52=20250122-06:07:29.465|32=1|31=60|423=3|1116=1|1117=FGML|1118=D|1119=73|55=AGTHIAUSD|167=ESVUFR|60=20250122-06:07:28.556|487=0|1003=106476101-106475101|1301=FGML|1300=FGML|552=2|54=2|453=4|448=7|447=C|452=1|448=FGML|447=G|452=22|448=FGML|447=G|452=73|448=163182|447=D|452=12|1=163182|581=2|1057=N|37=106475101|151=1|54=1|453=3|448=FGML|447=G|452=22|448=FGML|447=G|452=73|448=237477|447=D|452=3|1=237477|581=1|1057=Y|37=106476101|151=0|75=20250122|574=4|10=163|
20250122 06:07:36.917 - 8=FIXT.1.1|9=313|35=8|34=70|49=FGMLTEST|56=FMSSTEST|52=20250122-06:07:36.917|17=106475101|37=106475101|150=4|39=4|40=2|38=2|55=AGTHIAUSD|167=ESVUFR|453=4|448=7|447=C|452=1|448=FGML|447=G|452=22|448=FGML|447=G|452=73|448=163182|447=D|452=12|54=2|59=1|60=20250122-06:07:36.799|151=0|14=1|6=60|1=163182|581=2|423=3|44=60|75=20250122|10=183|
20250122 06:08:07.819 - 8=FIXT.1.1|9=60|35=0|34=71|49=FGMLTEST|56=FMSSTEST|52=20250122-06:08:07.819|10=059|
20250122 06:08:37.819 - 8=FIXT.1.1|9=60|35=0|34=72|49=FGMLTEST|56=FMSSTEST|52=20250122-06:08:37.819|10=063|
20250122 06:09:07.819 - 8=FIXT.1.1|9=60|35=0|34=73|49=FGMLTEST|56=FMSSTEST|52=20250122-06:09:07.819|10=062|
20250122 06:09:37.819 - 8=FIXT.1.1|9=60|35=0|34=74|49=FGMLTEST|56=FMSSTEST|52=20250122-06:09:37.819|10=066|
20250122 06:10:07.819 - 8=FIXT.1.1|9=60|35=0|34=75|49=FGMLTEST|56=FMSSTEST|52=20250122-06:10:07.819|10=056|
20250122 06:10:37.819 - 8=FIXT.1.1|9=60|35=0|34=76|49=FGMLTEST|56=FMSSTEST|52=20250122-06:10:37.819|10=060|
20250122 06:10:48.625 - 8=FIXT.1.1|9=312|35=8|34=77|49=FGMLTEST|56=FMSSTEST|52=20250122-06:10:48.625|17=106477101|37=106477101|150=0|39=0|40=2|38=1|55=AGTHIAUSD|167=ESVUFR|453=4|448=7|447=C|452=1|448=FGML|447=G|452=22|448=FGML|447=G|452=73|448=163182|447=D|452=12|54=2|59=1|60=20250122-06:10:48.587|151=1|14=0|6=0|1=163182|581=2|423=3|44=62|75=20250122|10=117|
20250122 06:11:05.162 - 8=FIXT.1.1|9=283|35=8|34=78|49=FGMLTEST|56=FMSSTEST|52=20250122-06:11:05.162|17=106478101|37=106478101|150=0|39=0|40=1|38=1|55=AGTHIAUSD|167=ESVUFR|453=3|448=FGML|447=G|452=22|448=FGML|447=G|452=73|448=237477|447=D|452=3|54=1|59=3|60=20250122-06:11:05.122|151=1|14=0|1=237477|581=1|423=3|75=20250122|10=079|
20250122 06:11:05.166 - 8=FIXT.1.1|9=313|35=8|34=79|49=FGMLTEST|56=FMSSTEST|52=20250122-06:11:05.166|17=106477101|37=106477101|150=5|39=2|40=2|38=1|55=AGTHIAUSD|167=ESVUFR|453=4|448=7|447=C|452=1|448=FGML|447=G|452=22|448=FGML|447=G|452=73|448=163182|447=D|452=12|54=2|59=1|60=20250122-06:11:05.122|151=0|14=1|6=62|1=163182|581=2|423=3|44=62|75=20250122|10=156|
20250122 06:11:05.167 - 8=FIXT.1.1|9=283|35=8|34=80|49=FGMLTEST|56=FMSSTEST|52=20250122-06:11:05.167|17=106478101|37=106478101|150=5|39=2|40=1|38=1|55=AGTHIAUSD|167=ESVUFR|453=3|448=FGML|447=G|452=22|448=FGML|447=G|452=73|448=237477|447=D|452=3|54=1|59=3|60=20250122-06:11:05.122|151=0|14=1|1=237477|581=1|423=3|75=20250122|10=084|
20250122 06:11:05.169 - 8=FIXT.1.1|9=491|35=AE|34=81|49=FGMLTEST|56=FMSSTEST|52=20250122-06:11:05.169|32=1|31=62|423=3|1116=1|1117=FGML|1118=D|1119=73|55=AGTHIAUSD|167=ESVUFR|60=20250122-06:11:05.122|487=0|1003=106478101-106477101|1301=FGML|1300=FGML|552=2|54=2|453=4|448=7|447=C|452=1|448=FGML|447=G|452=22|448=FGML|447=G|452=73|448=163182|447=D|452=12|1=163182|581=2|1057=N|37=106477101|151=0|54=1|453=3|448=FGML|447=G|452=22|448=FGML|447=G|452=73|448=237477|447=D|452=3|1=237477|581=1|1057=Y|37=106478101|151=0|75=20250122|574=4|10=135|
20250122 06:11:20.687 - 8=FIXT.1.1|9=312|35=8|34=82|49=FGMLTEST|56=FMSSTEST|52=20250122-06:11:20.687|17=106479101|37=106479101|150=0|39=0|40=2|38=1|55=AGTHIAUSD|167=ESVUFR|453=4|448=7|447=C|452=1|448=FGML|447=G|452=22|448=FGML|447=G|452=73|448=163182|447=D|452=12|54=2|59=1|60=20250122-06:11:20.655|151=1|14=0|6=0|1=163182|581=2|423=3|44=62|75=20250122|10=103|
20250122 06:11:31.012 - 8=FIXT.1.1|9=283|35=8|34=83|49=FGMLTEST|56=FMSSTEST|52=20250122-06:11:31.012|17=106480101|37=106480101|150=0|39=0|40=1|38=2|55=AGTHIAUSD|167=ESVUFR|453=3|448=FGML|447=G|452=22|448=FGML|447=G|452=73|448=237477|447=D|452=3|54=1|59=3|60=20250122-06:11:30.261|151=2|14=0|1=237477|581=1|423=3|75=20250122|10=058|
20250122 06:11:31.014 - 8=FIXT.1.1|9=313|35=8|34=84|49=FGMLTEST|56=FMSSTEST|52=20250122-06:11:31.014|17=106479101|37=106479101|150=5|39=2|40=2|38=1|55=AGTHIAUSD|167=ESVUFR|453=4|448=7|447=C|452=1|448=FGML|447=G|452=22|448=FGML|447=G|452=73|448=163182|447=D|452=12|54=2|59=1|60=20250122-06:11:30.261|151=0|14=1|6=62|1=163182|581=2|423=3|44=62|75=20250122|10=149|
20250122 06:11:31.018 - 8=FIXT.1.1|9=283|35=8|34=85|49=FGMLTEST|56=FMSSTEST|52=20250122-06:11:31.018|17=106480101|37=106480101|150=5|39=1|40=1|38=2|55=AGTHIAUSD|167=ESVUFR|453=3|448=FGML|447=G|452=22|448=FGML|447=G|452=73|448=237477|447=D|452=3|54=1|59=3|60=20250122-06:11:30.261|151=1|14=1|1=237477|581=1|423=3|75=20250122|10=072|
20250122 06:11:31.020 - 8=FIXT.1.1|9=491|35=AE|34=86|49=FGMLTEST|56=FMSSTEST|52=20250122-06:11:31.020|32=1|31=62|423=3|1116=1|1117=FGML|1118=D|1119=73|55=AGTHIAUSD|167=ESVUFR|60=20250122-06:11:30.261|487=0|1003=106480101-106479101|1301=FGML|1300=FGML|552=2|54=2|453=4|448=7|447=C|452=1|448=FGML|447=G|452=22|448=FGML|447=G|452=73|448=163182|447=D|452=12|1=163182|581=2|1057=N|37=106479101|151=0|54=1|453=3|448=FGML|447=G|452=22|448=FGML|447=G|452=73|448=237477|447=D|452=3|1=237477|581=1|1057=Y|37=106480101|151=1|75=20250122|574=4|10=118|
20250122 06:11:31.025 - 8=FIXT.1.1|9=283|35=8|34=87|49=FGMLTEST|56=FMSSTEST|52=20250122-06:11:31.025|17=106480101|37=106480101|150=4|39=4|40=1|38=2|55=AGTHIAUSD|167=ESVUFR|453=3|448=FGML|447=G|452=22|448=FGML|447=G|452=73|448=237477|447=D|452=3|54=1|59=3|60=20250122-06:11:30.261|151=0|14=1|1=237477|581=1|423=3|75=20250122|10=073|
20250122 06:12:01.820 - 8=FIXT.1.1|9=60|35=0|34=88|49=FGMLTEST|56=FMSSTEST|52=20250122-06:12:01.820|10=048|
20250122 06:12:32.819 - 8=FIXT.1.1|9=60|35=0|34=89|49=FGMLTEST|56=FMSSTEST|52=20250122-06:12:32.819|10=061|
20250122 06:13:02.819 - 8=FIXT.1.1|9=60|35=0|34=90|49=FGMLTEST|56=FMSSTEST|52=20250122-06:13:02.819|10=051|
20250122 06:13:08.145 - 8=FIXT.1.1|9=308|35=8|34=91|49=FGMLTEST|56=FMSSTEST|52=20250122-06:13:08.145|17=106481101|37=106481101|150=0|39=0|40=3|38=1|55=AGTHIAUSD|167=ESVUFR|453=4|448=7|447=C|452=1|448=FGML|447=G|452=22|448=FGML|447=G|452=73|448=163182|447=D|452=12|54=2|59=1|60=20250122-06:13:08.096|151=1|14=0|1=163182|581=2|423=3|99=60|75=20250122|10=199|
20250122 06:13:28.722 - 8=FIXT.1.1|9=312|35=8|34=92|49=FGMLTEST|56=FMSSTEST|52=20250122-06:13:28.722|17=106482101|37=106482101|150=0|39=0|40=2|38=1|55=AGTHIAUSD|167=ESVUFR|453=4|448=7|447=C|452=1|448=FGML|447=G|452=22|448=FGML|447=G|452=73|448=163182|447=D|452=12|54=2|59=1|60=20250122-06:13:28.686|151=1|14=0|6=0|1=163182|581=2|423=3|44=60|75=20250122|10=104|
20250122 06:13:55.802 - 8=FIXT.1.1|9=293|35=8|34=93|49=FGMLTEST|56=FMSSTEST|52=20250122-06:13:55.802|17=106483101|37=106483101|150=0|39=0|40=2|38=1|55=AGTHIAUSD|167=ESVUFR|453=3|448=FGML|447=G|452=22|448=FGML|447=G|452=73|448=237477|447=D|452=3|54=1|59=1|60=20250122-06:13:55.764|151=1|14=0|6=0|1=237477|581=1|423=3|44=58|75=20250122|10=022|
20250122 06:14:06.126 - 8=FIXT.1.1|9=293|35=8|34=94|49=FGMLTEST|56=FMSSTEST|52=20250122-06:14:06.126|17=106484101|37=106484101|150=0|39=0|40=2|38=1|55=AGTHIAUSD|167=ESVUFR|453=3|448=FGML|447=G|452=22|448=FGML|447=G|452=73|448=237477|447=D|452=3|54=1|59=1|60=20250122-06:14:05.389|151=1|14=0|6=0|1=237477|581=1|423=3|44=60|75=20250122|10=013|
20250122 06:14:06.127 - 8=FIXT.1.1|9=313|35=8|34=95|49=FGMLTEST|56=FMSSTEST|52=20250122-06:14:06.127|17=106482101|37=106482101|150=5|39=2|40=2|38=1|55=AGTHIAUSD|167=ESVUFR|453=4|448=7|447=C|452=1|448=FGML|447=G|452=22|448=FGML|447=G|452=73|448=163182|447=D|452=12|54=2|59=1|60=20250122-06:14:05.389|151=0|14=1|6=60|1=163182|581=2|423=3|44=60|75=20250122|10=161|
20250122 06:14:06.129 - 8=FIXT.1.1|9=294|35=8|34=96|49=FGMLTEST|56=FMSSTEST|52=20250122-06:14:06.129|17=106484101|37=106484101|150=5|39=2|40=2|38=1|55=AGTHIAUSD|167=ESVUFR|453=3|448=FGML|447=G|452=22|448=FGML|447=G|452=73|448=237477|447=D|452=3|54=1|59=1|60=20250122-06:14:05.389|151=0|14=1|6=60|1=237477|581=1|423=3|44=60|75=20250122|10=080|
20250122 06:14:06.130 - 8=FIXT.1.1|9=491|35=AE|34=97|49=FGMLTEST|56=FMSSTEST|52=20250122-06:14:06.130|32=1|31=60|423=3|1116=1|1117=FGML|1118=D|1119=73|55=AGTHIAUSD|167=ESVUFR|60=20250122-06:14:05.389|487=0|1003=106484101-106482101|1301=FGML|1300=FGML|552=2|54=2|453=4|448=7|447=C|452=1|448=FGML|447=G|452=22|448=FGML|447=G|452=73|448=163182|447=D|452=12|1=163182|581=2|1057=N|37=106482101|151=0|54=1|453=3|448=FGML|447=G|452=22|448=FGML|447=G|452=73|448=237477|447=D|452=3|1=237477|581=1|1057=Y|37=106484101|151=0|75=20250122|574=4|10=136|
20250122 06:14:06.131 - 8=FIXT.1.1|9=308|35=8|34=98|49=FGMLTEST|56=FMSSTEST|52=20250122-06:14:06.131|17=106481101|37=106481101|150=0|39=0|40=1|38=1|55=AGTHIAUSD|167=ESVUFR|453=4|448=7|447=C|452=1|448=FGML|447=G|452=22|448=FGML|447=G|452=73|448=163182|447=D|452=12|54=2|59=3|60=20250122-06:13:08.096|151=1|14=0|1=163182|581=2|423=3|99=60|75=20250122|10=200|
20250122 06:14:06.134 - 8=FIXT.1.1|9=308|35=8|34=99|49=FGMLTEST|56=FMSSTEST|52=20250122-06:14:06.134|17=106481101|37=106481101|150=5|39=2|40=1|38=1|55=AGTHIAUSD|167=ESVUFR|453=4|448=7|447=C|452=1|448=FGML|447=G|452=22|448=FGML|447=G|452=73|448=163182|447=D|452=12|54=2|59=3|60=20250122-06:14:05.389|151=0|14=1|1=163182|581=2|423=3|99=60|75=20250122|10=214|
20250122 06:14:06.137 - 8=FIXT.1.1|9=295|35=8|34=100|49=FGMLTEST|56=FMSSTEST|52=20250122-06:14:06.137|17=106483101|37=106483101|150=5|39=2|40=2|38=1|55=AGTHIAUSD|167=ESVUFR|453=3|448=FGML|447=G|452=22|448=FGML|447=G|452=73|448=237477|447=D|452=3|54=1|59=1|60=20250122-06:14:05.389|151=0|14=1|6=58|1=237477|581=1|423=3|44=58|75=20250122|10=126|
20250122 06:14:06.139 - 8=FIXT.1.1|9=492|35=AE|34=101|49=FGMLTEST|56=FMSSTEST|52=20250122-06:14:06.139|32=1|31=58|423=3|1116=1|1117=FGML|1118=D|1119=73|55=AGTHIAUSD|167=ESVUFR|60=20250122-06:14:05.389|487=0|1003=106483101-106481101|1301=FGML|1300=FGML|552=2|54=2|453=4|448=7|447=C|452=1|448=FGML|447=G|452=22|448=FGML|447=G|452=73|448=163182|447=D|452=12|1=163182|581=2|1057=Y|37=106481101|151=0|54=1|453=3|448=FGML|447=G|452=22|448=FGML|447=G|452=73|448=237477|447=D|452=3|1=237477|581=1|1057=N|37=106483101|151=0|75=20250122|574=4|10=183|
20250122 06:14:36.819 - 8=FIXT.1.1|9=61|35=0|34=102|49=FGMLTEST|56=FMSSTEST|52=20250122-06:14:36.819|10=102|
20250122 06:15:06.819 - 8=FIXT.1.1|9=61|35=0|34=103|49=FGMLTEST|56=FMSSTEST|52=20250122-06:15:06.819|10=101|
20250122 06:15:36.819 - 8=FIXT.1.1|9=61|35=0|34=104|49=FGMLTEST|56=FMSSTEST|52=20250122-06:15:36.819|10=105|
20250122 06:16:06.819 - 8=FIXT.1.1|9=61|35=0|34=105|49=FGMLTEST|56=FMSSTEST|52=20250122-06:16:06.819|10=104|
20250122 06:16:08.019 - 8=FIXT.1.1|9=309|35=8|34=106|49=FGMLTEST|56=FMSSTEST|52=20250122-06:16:08.019|17=106485101|37=106485101|150=0|39=0|40=3|38=2|55=AGTHIAUSD|167=ESVUFR|453=4|448=7|447=C|452=1|448=FGML|447=G|452=22|448=FGML|447=G|452=73|448=163182|447=D|452=12|54=2|59=1|60=20250122-06:16:07.979|151=2|14=0|1=163182|581=2|423=3|99=56|75=20250122|10=019|
20250122 06:16:27.135 - 8=FIXT.1.1|9=313|35=8|34=107|49=FGMLTEST|56=FMSSTEST|52=20250122-06:16:27.135|17=106486101|37=106486101|150=0|39=0|40=2|38=1|55=AGTHIAUSD|167=ESVUFR|453=4|448=7|447=C|452=1|448=FGML|447=G|452=22|448=FGML|447=G|452=73|448=163182|447=D|452=12|54=2|59=1|60=20250122-06:16:27.099|151=1|14=0|6=0|1=163182|581=2|423=3|44=56|75=20250122|10=163|
20250122 06:16:57.819 - 8=FIXT.1.1|9=61|35=0|34=108|49=FGMLTEST|56=FMSSTEST|52=20250122-06:16:57.819|10=113|
20250122 06:17:27.819 - 8=FIXT.1.1|9=61|35=0|34=109|49=FGMLTEST|56=FMSSTEST|52=20250122-06:17:27.819|10=112|
20250122 06:17:29.720 - 8=FIXT.1.1|9=294|35=8|34=110|49=FGMLTEST|56=FMSSTEST|52=20250122-06:17:29.720|17=106487101|37=106487101|150=0|39=0|40=2|38=1|55=AGTHIAUSD|167=ESVUFR|453=3|448=FGML|447=G|452=22|448=FGML|447=G|452=73|448=237477|447=D|452=3|54=1|59=1|60=20250122-06:17:29.684|151=1|14=0|6=0|1=237477|581=1|423=3|44=54|75=20250122|10=075|
20250122 06:17:38.051 - 8=FIXT.1.1|9=294|35=8|34=111|49=FGMLTEST|56=FMSSTEST|52=20250122-06:17:38.051|17=106488101|37=106488101|150=0|39=0|40=2|38=1|55=AGTHIAUSD|167=ESVUFR|453=3|448=FGML|447=G|452=22|448=FGML|447=G|452=73|448=237477|447=D|452=3|54=1|59=1|60=20250122-06:17:38.009|151=1|14=0|6=0|1=237477|581=1|423=3|44=56|75=20250122|10=068|
20250122 06:17:38.056 - 8=FIXT.1.1|9=314|35=8|34=112|49=FGMLTEST|56=FMSSTEST|52=20250122-06:17:38.056|17=106486101|37=106486101|150=5|39=2|40=2|38=1|55=AGTHIAUSD|167=ESVUFR|453=4|448=7|447=C|452=1|448=FGML|447=G|452=22|448=FGML|447=G|452=73|448=163182|447=D|452=12|54=2|59=1|60=20250122-06:17:38.009|151=0|14=1|6=56|1=163182|581=2|423=3|44=56|75=20250122|10=225|
20250122 06:17:38.059 - 8=FIXT.1.1|9=295|35=8|34=113|49=FGMLTEST|56=FMSSTEST|52=20250122-06:17:38.059|17=106488101|37=106488101|150=5|39=2|40=2|38=1|55=AGTHIAUSD|167=ESVUFR|453=3|448=FGML|447=G|452=22|448=FGML|447=G|452=73|448=237477|447=D|452=3|54=1|59=1|60=20250122-06:17:38.009|151=0|14=1|6=56|1=237477|581=1|423=3|44=56|75=20250122|10=145|
20250122 06:17:38.062 - 8=FIXT.1.1|9=492|35=AE|34=114|49=FGMLTEST|56=FMSSTEST|52=20250122-06:17:38.062|32=1|31=56|423=3|1116=1|1117=FGML|1118=D|1119=73|55=AGTHIAUSD|167=ESVUFR|60=20250122-06:17:38.009|487=0|1003=106488101-106486101|1301=FGML|1300=FGML|552=2|54=2|453=4|448=7|447=C|452=1|448=FGML|447=G|452=22|448=FGML|447=G|452=73|448=163182|447=D|452=12|1=163182|581=2|1057=N|37=106486101|151=0|54=1|453=3|448=FGML|447=G|452=22|448=FGML|447=G|452=73|448=237477|447=D|452=3|1=237477|581=1|1057=Y|37=106488101|151=0|75=20250122|574=4|10=206|
20250122 06:17:38.066 - 8=FIXT.1.1|9=309|35=8|34=115|49=FGMLTEST|56=FMSSTEST|52=20250122-06:17:38.066|17=106485101|37=106485101|150=0|39=0|40=1|38=2|55=AGTHIAUSD|167=ESVUFR|453=4|448=7|447=C|452=1|448=FGML|447=G|452=22|448=FGML|447=G|452=73|448=163182|447=D|452=12|54=2|59=3|60=20250122-06:16:07.979|151=2|14=0|1=163182|581=2|423=3|99=56|75=20250122|10=025|
20250122 06:17:38.075 - 8=FIXT.1.1|9=309|35=8|34=116|49=FGMLTEST|56=FMSSTEST|52=20250122-06:17:38.075|17=106485101|37=106485101|150=5|39=1|40=1|38=2|55=AGTHIAUSD|167=ESVUFR|453=4|448=7|447=C|452=1|448=FGML|447=G|452=22|448=FGML|447=G|452=73|448=163182|447=D|452=12|54=2|59=3|60=20250122-06:17:38.009|151=1|14=1|1=163182|581=2|423=3|99=56|75=20250122|10=021|
20250122 06:17:38.081 - 8=FIXT.1.1|9=295|35=8|34=117|49=FGMLTEST|56=FMSSTEST|52=20250122-06:17:38.081|17=106487101|37=106487101|150=5|39=2|40=2|38=1|55=AGTHIAUSD|167=ESVUFR|453=3|448=FGML|447=G|452=22|448=FGML|447=G|452=73|448=237477|447=D|452=3|54=1|59=1|60=20250122-06:17:38.009|151=0|14=1|6=54|1=237477|581=1|423=3|44=54|75=20250122|10=138|
20250122 06:17:38.085 - 8=FIXT.1.1|9=492|35=AE|34=118|49=FGMLTEST|56=FMSSTEST|52=20250122-06:17:38.085|32=1|31=54|423=3|1116=1|1117=FGML|1118=D|1119=73|55=AGTHIAUSD|167=ESVUFR|60=20250122-06:17:38.009|487=0|1003=106487101-106485101|1301=FGML|1300=FGML|552=2|54=2|453=4|448=7|447=C|452=1|448=FGML|447=G|452=22|448=FGML|447=G|452=73|448=163182|447=D|452=12|1=163182|581=2|1057=Y|37=106485101|151=1|54=1|453=3|448=FGML|447=G|452=22|448=FGML|447=G|452=73|448=237477|447=D|452=3|1=237477|581=1|1057=N|37=106487101|151=0|75=20250122|574=4|10=210|
20250122 06:17:38.088 - 8=FIXT.1.1|9=309|35=8|34=119|49=FGMLTEST|56=FMSSTEST|52=20250122-06:17:38.088|17=106485101|37=106485101|150=4|39=4|40=1|38=2|55=AGTHIAUSD|167=ESVUFR|453=4|448=7|447=C|452=1|448=FGML|447=G|452=22|448=FGML|447=G|452=73|448=163182|447=D|452=12|54=2|59=3|60=20250122-06:17:38.009|151=0|14=1|1=163182|581=2|423=3|99=56|75=20250122|10=029|
20250122 06:18:08.658 - 8=FIXT.1.1|9=61|35=0|34=120|49=FGMLTEST|56=FMSSTEST|52=20250122-06:18:08.657|10=105|
20250122 06:18:38.819 - 8=FIXT.1.1|9=61|35=0|34=121|49=FGMLTEST|56=FMSSTEST|52=20250122-06:18:38.819|10=109|
20250122 06:19:08.819 - 8=FIXT.1.1|9=61|35=0|34=122|49=FGMLTEST|56=FMSSTEST|52=20250122-06:19:08.819|10=108|
20250122 06:19:38.819 - 8=FIXT.1.1|9=61|35=0|34=123|49=FGMLTEST|56=FMSSTEST|52=20250122-06:19:38.819|10=112|
20250122 06:20:08.820 - 8=FIXT.1.1|9=61|35=0|34=124|49=FGMLTEST|56=FMSSTEST|52=20250122-06:20:08.819|10=102|
20250122 06:20:39.819 - 8=FIXT.1.1|9=61|35=0|34=125|49=FGMLTEST|56=FMSSTEST|52=20250122-06:20:39.819|10=107|
20250122 06:21:09.819 - 8=FIXT.1.1|9=61|35=0|34=126|49=FGMLTEST|56=FMSSTEST|52=20250122-06:21:09.819|10=106|
20250122 06:21:39.819 - 8=FIXT.1.1|9=61|35=0|34=127|49=FGMLTEST|56=FMSSTEST|52=20250122-06:21:39.819|10=110|
20250122 06:22:09.819 - 8=FIXT.1.1|9=61|35=0|34=128|49=FGMLTEST|56=FMSSTEST|52=20250122-06:22:09.819|10=109|
20250122 06:22:39.819 - 8=FIXT.1.1|9=61|35=0|34=129|49=FGMLTEST|56=FMSSTEST|52=20250122-06:22:39.819|10=113|
20250122 06:23:09.819 - 8=FIXT.1.1|9=61|35=0|34=130|49=FGMLTEST|56=FMSSTEST|52=20250122-06:23:09.819|10=103|
20250122 06:23:39.819 - 8=FIXT.1.1|9=61|35=0|34=131|49=FGMLTEST|56=FMSSTEST|52=20250122-06:23:39.819|10=107|
20250122 06:24:09.819 - 8=FIXT.1.1|9=61|35=0|34=132|49=FGMLTEST|56=FMSSTEST|52=20250122-06:24:09.819|10=106|
20250122 06:24:39.819 - 8=FIXT.1.1|9=61|35=0|34=133|49=FGMLTEST|56=FMSSTEST|52=20250122-06:24:39.819|10=110|
20250122 06:24:56.569 - 8=FIXT.1.1|9=290|35=8|34=134|49=FGMLTEST|56=FMSSTEST|52=20250122-06:24:56.569|17=106489101|37=106489101|150=0|39=0|40=3|38=1|55=AGTHIAUSD|167=ESVUFR|453=3|448=FGML|447=G|452=22|448=FGML|447=G|452=73|448=237477|447=D|452=3|54=1|59=1|60=20250122-06:24:56.523|151=1|14=0|1=237477|581=1|423=3|99=56|75=20250122|10=185|
20250122 06:25:02.331 - 8=FIXT.1.1|9=290|35=8|34=135|49=FGMLTEST|56=FMSSTEST|52=20250122-06:25:02.331|17=106489101|37=106489101|150=4|39=4|40=3|38=1|55=AGTHIAUSD|167=ESVUFR|453=3|448=FGML|447=G|452=22|448=FGML|447=G|452=73|448=237477|447=D|452=3|54=1|59=1|60=20250122-06:25:01.514|151=0|14=0|1=237477|581=1|423=3|99=56|75=20250122|10=163|
20250122 06:25:25.469 - 8=FIXT.1.1|9=70|35=0|34=136|49=FGMLTEST|56=FMSSTEST|52=20250122-06:25:25.469|112=TEST|10=128|
20250122 06:25:55.819 - 8=FIXT.1.1|9=61|35=0|34=137|49=FGMLTEST|56=FMSSTEST|52=20250122-06:25:55.819|10=113|
20250122 06:26:25.819 - 8=FIXT.1.1|9=61|35=0|34=138|49=FGMLTEST|56=FMSSTEST|52=20250122-06:26:25.819|10=112|
20250122 06:26:55.820 - 8=FIXT.1.1|9=61|35=0|34=139|49=FGMLTEST|56=FMSSTEST|52=20250122-06:26:55.819|10=116|
20250122 06:27:26.819 - 8=FIXT.1.1|9=61|35=0|34=140|49=FGMLTEST|56=FMSSTEST|52=20250122-06:27:26.819|10=107|
20250122 06:27:56.819 - 8=FIXT.1.1|9=61|35=0|34=141|49=FGMLTEST|56=FMSSTEST|52=20250122-06:27:56.819|10=111|
20250122 06:28:17.192 - 8=FIXT.1.1|9=300|35=8|34=142|49=FGMLTEST|56=FMSSTEST|52=20250122-06:28:17.191|17=106490101|37=106490101|150=0|39=0|40=4|38=1|55=AGTHIAUSD|167=ESVUFR|453=3|448=FGML|447=G|452=22|448=FGML|447=G|452=73|448=237477|447=D|452=3|54=2|59=1|60=20250122-06:28:17.155|151=1|14=0|6=0|1=237477|581=1|423=3|44=50|99=52|75=20250122|10=071|
20250122 06:28:47.819 - 8=FIXT.1.1|9=61|35=0|34=143|49=FGMLTEST|56=FMSSTEST|52=20250122-06:28:47.819|10=114|
20250122 06:28:58.825 - 8=FIXT.1.1|9=294|35=8|34=144|49=FGMLTEST|56=FMSSTEST|52=20250122-06:28:58.825|17=106491101|37=106491101|150=0|39=0|40=2|38=1|55=AGTHIAUSD|167=ESVUFR|453=3|448=FGML|447=G|452=22|448=FGML|447=G|452=73|448=237477|447=D|452=3|54=2|59=1|60=20250122-06:28:58.794|151=1|14=0|6=0|1=237477|581=1|423=3|44=52|75=20250122|10=087|
20250122 06:29:29.819 - 8=FIXT.1.1|9=61|35=0|34=145|49=FGMLTEST|56=FMSSTEST|52=20250122-06:29:29.819|10=117|
20250122 06:29:50.626 - 8=FIXT.1.1|9=313|35=8|34=146|49=FGMLTEST|56=FMSSTEST|52=20250122-06:29:50.626|17=106492101|37=106492101|150=0|39=0|40=2|38=1|55=AGTHIAUSD|167=ESVUFR|453=4|448=7|447=C|452=1|448=FGML|447=G|452=22|448=FGML|447=G|452=73|448=163182|447=D|452=12|54=1|59=1|60=20250122-06:29:50.590|151=1|14=0|6=0|1=163182|581=2|423=3|44=50|75=20250122|10=154|
20250122 06:29:59.949 - 8=FIXT.1.1|9=313|35=8|34=147|49=FGMLTEST|56=FMSSTEST|52=20250122-06:29:59.949|17=106493101|37=106493101|150=0|39=0|40=2|38=1|55=AGTHIAUSD|167=ESVUFR|453=4|448=7|447=C|452=1|448=FGML|447=G|452=22|448=FGML|447=G|452=73|448=163182|447=D|452=12|54=1|59=1|60=20250122-06:29:59.193|151=1|14=0|6=0|1=163182|581=2|423=3|44=52|75=20250122|10=184|
20250122 06:29:59.951 - 8=FIXT.1.1|9=295|35=8|34=148|49=FGMLTEST|56=FMSSTEST|52=20250122-06:29:59.951|17=106491101|37=106491101|150=5|39=2|40=2|38=1|55=AGTHIAUSD|167=ESVUFR|453=3|448=FGML|447=G|452=22|448=FGML|447=G|452=73|448=237477|447=D|452=3|54=2|59=1|60=20250122-06:29:59.193|151=0|14=1|6=52|1=237477|581=1|423=3|44=52|75=20250122|10=151|
20250122 06:29:59.953 - 8=FIXT.1.1|9=314|35=8|34=149|49=FGMLTEST|56=FMSSTEST|52=20250122-06:29:59.953|17=106493101|37=106493101|150=5|39=2|40=2|38=1|55=AGTHIAUSD|167=ESVUFR|453=4|448=7|447=C|452=1|448=FGML|447=G|452=22|448=FGML|447=G|452=73|448=163182|447=D|452=12|54=1|59=1|60=20250122-06:29:59.193|151=0|14=1|6=52|1=163182|581=2|423=3|44=52|75=20250122|10=244|
20250122 06:29:59.956 - 8=FIXT.1.1|9=492|35=AE|34=150|49=FGMLTEST|56=FMSSTEST|52=20250122-06:29:59.956|32=1|31=52|423=3|1116=1|1117=FGML|1118=D|1119=73|55=AGTHIAUSD|167=ESVUFR|60=20250122-06:29:59.193|487=0|1003=106493101-106491101|1301=FGML|1300=FGML|552=2|54=2|453=3|448=FGML|447=G|452=22|448=FGML|447=G|452=73|448=237477|447=D|452=3|1=237477|581=1|1057=N|37=106491101|151=0|54=1|453=4|448=7|447=C|452=1|448=FGML|447=G|452=22|448=FGML|447=G|452=73|448=163182|447=D|452=12|1=163182|581=2|1057=Y|37=106493101|151=0|75=20250122|574=4|10=214|
20250122 06:29:59.958 - 8=FIXT.1.1|9=300|35=8|34=151|49=FGMLTEST|56=FMSSTEST|52=20250122-06:29:59.958|17=106490101|37=106490101|150=0|39=0|40=2|38=1|55=AGTHIAUSD|167=ESVUFR|453=3|448=FGML|447=G|452=22|448=FGML|447=G|452=73|448=237477|447=D|452=3|54=2|59=1|60=20250122-06:28:17.155|151=1|14=0|6=0|1=237477|581=1|423=3|44=50|99=52|75=20250122|10=087|
20250122 06:29:59.960 - 8=FIXT.1.1|9=301|35=8|34=152|49=FGMLTEST|56=FMSSTEST|52=20250122-06:29:59.960|17=106490101|37=106490101|150=5|39=2|40=2|38=1|55=AGTHIAUSD|167=ESVUFR|453=3|448=FGML|447=G|452=22|448=FGML|447=G|452=73|448=237477|447=D|452=3|54=2|59=1|60=20250122-06:29:59.193|151=0|14=1|6=50|1=237477|581=1|423=3|44=50|99=52|75=20250122|10=151|
20250122 06:29:59.962 - 8=FIXT.1.1|9=314|35=8|34=153|49=FGMLTEST|56=FMSSTEST|52=20250122-06:29:59.962|17=106492101|37=106492101|150=5|39=2|40=2|38=1|55=AGTHIAUSD|167=ESVUFR|453=4|448=7|447=C|452=1|448=FGML|447=G|452=22|448=FGML|447=G|452=73|448=163182|447=D|452=12|54=1|59=1|60=20250122-06:29:59.193|151=0|14=1|6=50|1=163182|581=2|423=3|44=50|75=20250122|10=233|
20250122 06:29:59.963 - 8=FIXT.1.1|9=492|35=AE|34=154|49=FGMLTEST|56=FMSSTEST|52=20250122-06:29:59.963|32=1|31=50|423=3|1116=1|1117=FGML|1118=D|1119=73|55=AGTHIAUSD|167=ESVUFR|60=20250122-06:29:59.193|487=0|1003=106492101-106490101|1301=FGML|1300=FGML|552=2|54=2|453=3|448=FGML|447=G|452=22|448=FGML|447=G|452=73|448=237477|447=D|452=3|1=237477|581=1|1057=Y|37=106490101|151=0|54=1|453=4|448=7|447=C|452=1|448=FGML|447=G|452=22|448=FGML|447=G|452=73|448=163182|447=D|452=12|1=163182|581=2|1057=N|37=106492101|151=0|75=20250122|574=4|10=210|
20250122 06:30:30.819 - 8=FIXT.1.1|9=61|35=0|34=155|49=FGMLTEST|56=FMSSTEST|52=20250122-06:30:30.819|10=102|
20250122 06:31:00.819 - 8=FIXT.1.1|9=61|35=0|34=156|49=FGMLTEST|56=FMSSTEST|52=20250122-06:31:00.819|10=101|
20250122 06:31:30.819 - 8=FIXT.1.1|9=61|35=0|34=157|49=FGMLTEST|56=FMSSTEST|52=20250122-06:31:30.819|10=105|
20250122 06:32:00.819 - 8=FIXT.1.1|9=61|35=0|34=158|49=FGMLTEST|56=FMSSTEST|52=20250122-06:32:00.819|10=104|
20250122 06:32:30.819 - 8=FIXT.1.1|9=61|35=0|34=159|49=FGMLTEST|56=FMSSTEST|52=20250122-06:32:30.819|10=108|
20250122 06:33:00.819 - 8=FIXT.1.1|9=61|35=0|34=160|49=FGMLTEST|56=FMSSTEST|52=20250122-06:33:00.819|10=098|
20250122 06:33:31.497 - 8=FIXT.1.1|9=61|35=0|34=161|49=FGMLTEST|56=FMSSTEST|52=20250122-06:33:31.497|10=105|
20250122 06:34:01.819 - 8=FIXT.1.1|9=61|35=0|34=162|49=FGMLTEST|56=FMSSTEST|52=20250122-06:34:01.819|10=102|
20250122 06:34:31.819 - 8=FIXT.1.1|9=61|35=0|34=163|49=FGMLTEST|56=FMSSTEST|52=20250122-06:34:31.819|10=106|
20250122 06:35:01.819 - 8=FIXT.1.1|9=61|35=0|34=164|49=FGMLTEST|56=FMSSTEST|52=20250122-06:35:01.819|10=105|
20250122 06:35:31.820 - 8=FIXT.1.1|9=61|35=0|34=165|49=FGMLTEST|56=FMSSTEST|52=20250122-06:35:31.819|10=109|
20250122 06:36:02.819 - 8=FIXT.1.1|9=61|35=0|34=166|49=FGMLTEST|56=FMSSTEST|52=20250122-06:36:02.819|10=109|
20250122 06:36:32.819 - 8=FIXT.1.1|9=61|35=0|34=167|49=FGMLTEST|56=FMSSTEST|52=20250122-06:36:32.819|10=113|
20250122 06:37:02.822 - 8=FIXT.1.1|9=61|35=0|34=168|49=FGMLTEST|56=FMSSTEST|52=20250122-06:37:02.822|10=106|
20250122 06:37:33.819 - 8=FIXT.1.1|9=61|35=0|34=169|49=FGMLTEST|56=FMSSTEST|52=20250122-06:37:33.819|10=117|
20250122 06:38:03.819 - 8=FIXT.1.1|9=61|35=0|34=170|49=FGMLTEST|56=FMSSTEST|52=20250122-06:38:03.819|10=107|
20250122 06:38:33.819 - 8=FIXT.1.1|9=61|35=0|34=171|49=FGMLTEST|56=FMSSTEST|52=20250122-06:38:33.819|10=111|
20250122 06:39:03.819 - 8=FIXT.1.1|9=61|35=0|34=172|49=FGMLTEST|56=FMSSTEST|52=20250122-06:39:03.819|10=110|
20250122 06:39:33.819 - 8=FIXT.1.1|9=61|35=0|34=173|49=FGMLTEST|56=FMSSTEST|52=20250122-06:39:33.819|10=114|
20250122 06:40:03.819 - 8=FIXT.1.1|9=61|35=0|34=174|49=FGMLTEST|56=FMSSTEST|52=20250122-06:40:03.819|10=104|
20250122 06:40:33.819 - 8=FIXT.1.1|9=61|35=0|34=175|49=FGMLTEST|56=FMSSTEST|52=20250122-06:40:33.819|10=108|
20250122 06:41:03.819 - 8=FIXT.1.1|9=61|35=0|34=176|49=FGMLTEST|56=FMSSTEST|52=20250122-06:41:03.819|10=107|
20250122 06:41:33.819 - 8=FIXT.1.1|9=61|35=0|34=177|49=FGMLTEST|56=FMSSTEST|52=20250122-06:41:33.819|10=111|
20250122 06:42:03.819 - 8=FIXT.1.1|9=61|35=0|34=178|49=FGMLTEST|56=FMSSTEST|52=20250122-06:42:03.819|10=110|
20250122 06:42:33.819 - 8=FIXT.1.1|9=61|35=0|34=179|49=FGMLTEST|56=FMSSTEST|52=20250122-06:42:33.819|10=114|
20250122 06:43:03.819 - 8=FIXT.1.1|9=61|35=0|34=180|49=FGMLTEST|56=FMSSTEST|52=20250122-06:43:03.819|10=104|
20250122 06:43:33.819 - 8=FIXT.1.1|9=61|35=0|34=181|49=FGMLTEST|56=FMSSTEST|52=20250122-06:43:33.819|10=108|
20250122 06:44:03.819 - 8=FIXT.1.1|9=61|35=0|34=182|49=FGMLTEST|56=FMSSTEST|52=20250122-06:44:03.819|10=107|
20250122 06:44:33.819 - 8=FIXT.1.1|9=61|35=0|34=183|49=FGMLTEST|56=FMSSTEST|52=20250122-06:44:33.819|10=111|
20250122 06:45:03.819 - 8=FIXT.1.1|9=61|35=0|34=184|49=FGMLTEST|56=FMSSTEST|52=20250122-06:45:03.819|10=110|
20250122 06:45:33.820 - 8=FIXT.1.1|9=61|35=0|34=185|49=FGMLTEST|56=FMSSTEST|52=20250122-06:45:33.819|10=114|
20250122 06:46:04.819 - 8=FIXT.1.1|9=61|35=0|34=186|49=FGMLTEST|56=FMSSTEST|52=20250122-06:46:04.819|10=114|
20250122 06:46:35.767 - 8=FIXT.1.1|9=61|35=0|34=187|49=FGMLTEST|56=FMSSTEST|52=20250122-06:46:35.767|10=121|
20250122 06:47:05.819 - 8=FIXT.1.1|9=61|35=0|34=188|49=FGMLTEST|56=FMSSTEST|52=20250122-06:47:05.819|10=118|
20250122 06:47:35.819 - 8=FIXT.1.1|9=61|35=0|34=189|49=FGMLTEST|56=FMSSTEST|52=20250122-06:47:35.819|10=122|
20250122 06:48:05.819 - 8=FIXT.1.1|9=61|35=0|34=190|49=FGMLTEST|56=FMSSTEST|52=20250122-06:48:05.819|10=112|
20250122 06:48:35.819 - 8=FIXT.1.1|9=61|35=0|34=191|49=FGMLTEST|56=FMSSTEST|52=20250122-06:48:35.819|10=116|
20250122 06:49:05.819 - 8=FIXT.1.1|9=61|35=0|34=192|49=FGMLTEST|56=FMSSTEST|52=20250122-06:49:05.819|10=115|
20250122 06:49:35.819 - 8=FIXT.1.1|9=61|35=0|34=193|49=FGMLTEST|56=FMSSTEST|52=20250122-06:49:35.819|10=119|
20250122 06:50:05.819 - 8=FIXT.1.1|9=61|35=0|34=194|49=FGMLTEST|56=FMSSTEST|52=20250122-06:50:05.819|10=109|
20250122 06:50:35.845 - 8=FIXT.1.1|9=61|35=0|34=195|49=FGMLTEST|56=FMSSTEST|52=20250122-06:50:35.845|10=112|
20250122 06:51:06.819 - 8=FIXT.1.1|9=61|35=0|34=196|49=FGMLTEST|56=FMSSTEST|52=20250122-06:51:06.819|10=113|
20250122 06:51:36.819 - 8=FIXT.1.1|9=61|35=0|34=197|49=FGMLTEST|56=FMSSTEST|52=20250122-06:51:36.819|10=117|
20250122 06:52:06.819 - 8=FIXT.1.1|9=61|35=0|34=198|49=FGMLTEST|56=FMSSTEST|52=20250122-06:52:06.819|10=116|
20250122 06:52:36.879 - 8=FIXT.1.1|9=61|35=0|34=199|49=FGMLTEST|56=FMSSTEST|52=20250122-06:52:36.879|10=126|
20250122 06:53:07.819 - 8=FIXT.1.1|9=61|35=0|34=200|49=FGMLTEST|56=FMSSTEST|52=20250122-06:53:07.819|10=102|
20250122 06:53:37.819 - 8=FIXT.1.1|9=61|35=0|34=201|49=FGMLTEST|56=FMSSTEST|52=20250122-06:53:37.819|10=106|
20250122 06:54:07.819 - 8=FIXT.1.1|9=61|35=0|34=202|49=FGMLTEST|56=FMSSTEST|52=20250122-06:54:07.819|10=105|
20250122 06:54:37.820 - 8=FIXT.1.1|9=61|35=0|34=203|49=FGMLTEST|56=FMSSTEST|52=20250122-06:54:37.820|10=101|
20250122 06:55:09.446 - 8=FIXT.1.1|9=61|35=0|34=204|49=FGMLTEST|56=FMSSTEST|52=20250122-06:55:09.446|10=106|
20250122 06:55:39.819 - 8=FIXT.1.1|9=61|35=0|34=205|49=FGMLTEST|56=FMSSTEST|52=20250122-06:55:39.819|10=114|
20250122 06:56:09.819 - 8=FIXT.1.1|9=61|35=0|34=206|49=FGMLTEST|56=FMSSTEST|52=20250122-06:56:09.819|10=113|
20250122 06:56:39.819 - 8=FIXT.1.1|9=61|35=0|34=207|49=FGMLTEST|56=FMSSTEST|52=20250122-06:56:39.819|10=117|
20250122 06:57:09.819 - 8=FIXT.1.1|9=61|35=0|34=208|49=FGMLTEST|56=FMSSTEST|52=20250122-06:57:09.819|10=116|
20250122 06:57:39.819 - 8=FIXT.1.1|9=61|35=0|34=209|49=FGMLTEST|56=FMSSTEST|52=20250122-06:57:39.819|10=120|
20250122 06:58:09.819 - 8=FIXT.1.1|9=61|35=0|34=210|49=FGMLTEST|56=FMSSTEST|52=20250122-06:58:09.819|10=110|
20250122 06:58:39.819 - 8=FIXT.1.1|9=61|35=0|34=211|49=FGMLTEST|56=FMSSTEST|52=20250122-06:58:39.819|10=114|
20250122 06:59:09.819 - 8=FIXT.1.1|9=61|35=0|34=212|49=FGMLTEST|56=FMSSTEST|52=20250122-06:59:09.819|10=113|
20250122 06:59:39.819 - 8=FIXT.1.1|9=61|35=0|34=213|49=FGMLTEST|56=FMSSTEST|52=20250122-06:59:39.819|10=117|
20250122 07:00:09.819 - 8=FIXT.1.1|9=61|35=0|34=214|49=FGMLTEST|56=FMSSTEST|52=20250122-07:00:09.819|10=102|
20250122 07:00:39.819 - 8=FIXT.1.1|9=61|35=0|34=215|49=FGMLTEST|56=FMSSTEST|52=20250122-07:00:39.819|10=106|
20250122 07:01:09.819 - 8=FIXT.1.1|9=61|35=0|34=216|49=FGMLTEST|56=FMSSTEST|52=20250122-07:01:09.819|10=105|
20250122 07:01:39.819 - 8=FIXT.1.1|9=61|35=0|34=217|49=FGMLTEST|56=FMSSTEST|52=20250122-07:01:39.819|10=109|
20250122 07:02:09.819 - 8=FIXT.1.1|9=61|35=0|34=218|49=FGMLTEST|56=FMSSTEST|52=20250122-07:02:09.819|10=108|
20250122 07:02:39.819 - 8=FIXT.1.1|9=61|35=0|34=219|49=FGMLTEST|56=FMSSTEST|52=20250122-07:02:39.819|10=112|
20250122 07:03:09.819 - 8=FIXT.1.1|9=61|35=0|34=220|49=FGMLTEST|56=FMSSTEST|52=20250122-07:03:09.819|10=102|
20250122 07:03:39.819 - 8=FIXT.1.1|9=61|35=0|34=221|49=FGMLTEST|56=FMSSTEST|52=20250122-07:03:39.819|10=106|
20250122 07:04:10.135 - 8=FIXT.1.1|9=61|35=0|34=222|49=FGMLTEST|56=FMSSTEST|52=20250122-07:04:10.135|10=088|
20250122 07:04:40.819 - 8=FIXT.1.1|9=61|35=0|34=223|49=FGMLTEST|56=FMSSTEST|52=20250122-07:04:40.819|10=101|
20250122 07:05:10.819 - 8=FIXT.1.1|9=61|35=0|34=224|49=FGMLTEST|56=FMSSTEST|52=20250122-07:05:10.819|10=100|
20250122 07:05:40.819 - 8=FIXT.1.1|9=61|35=0|34=225|49=FGMLTEST|56=FMSSTEST|52=20250122-07:05:40.819|10=104|
20250122 07:06:10.819 - 8=FIXT.1.1|9=61|35=0|34=226|49=FGMLTEST|56=FMSSTEST|52=20250122-07:06:10.819|10=103|
20250122 07:06:40.819 - 8=FIXT.1.1|9=61|35=0|34=227|49=FGMLTEST|56=FMSSTEST|52=20250122-07:06:40.819|10=107|
20250122 07:07:10.819 - 8=FIXT.1.1|9=61|35=0|34=228|49=FGMLTEST|56=FMSSTEST|52=20250122-07:07:10.819|10=106|
20250122 07:07:40.819 - 8=FIXT.1.1|9=61|35=0|34=229|49=FGMLTEST|56=FMSSTEST|52=20250122-07:07:40.819|10=110|
20250122 07:08:10.819 - 8=FIXT.1.1|9=61|35=0|34=230|49=FGMLTEST|56=FMSSTEST|52=20250122-07:08:10.819|10=100|
20250122 07:08:41.742 - 8=FIXT.1.1|9=61|35=0|34=231|49=FGMLTEST|56=FMSSTEST|52=20250122-07:08:41.742|10=100|
20250122 07:09:12.751 - 8=FIXT.1.1|9=61|35=0|34=232|49=FGMLTEST|56=FMSSTEST|52=20250122-07:09:12.751|10=100|
20250122 07:09:42.819 - 8=FIXT.1.1|9=61|35=0|34=233|49=FGMLTEST|56=FMSSTEST|52=20250122-07:09:42.819|10=109|
20250122 07:10:12.819 - 8=FIXT.1.1|9=61|35=0|34=234|49=FGMLTEST|56=FMSSTEST|52=20250122-07:10:12.819|10=099|
20250122 07:10:42.819 - 8=FIXT.1.1|9=61|35=0|34=235|49=FGMLTEST|56=FMSSTEST|52=20250122-07:10:42.819|10=103|
20250122 07:11:12.819 - 8=FIXT.1.1|9=61|35=0|34=236|49=FGMLTEST|56=FMSSTEST|52=20250122-07:11:12.819|10=102|
20250122 07:11:42.819 - 8=FIXT.1.1|9=61|35=0|34=237|49=FGMLTEST|56=FMSSTEST|52=20250122-07:11:42.819|10=106|
20250122 07:12:12.819 - 8=FIXT.1.1|9=61|35=0|34=238|49=FGMLTEST|56=FMSSTEST|52=20250122-07:12:12.819|10=105|
20250122 07:12:42.819 - 8=FIXT.1.1|9=61|35=0|34=239|49=FGMLTEST|56=FMSSTEST|52=20250122-07:12:42.819|10=109|
20250122 07:13:12.819 - 8=FIXT.1.1|9=61|35=0|34=240|49=FGMLTEST|56=FMSSTEST|52=20250122-07:13:12.819|10=099|
20250122 07:13:42.819 - 8=FIXT.1.1|9=61|35=0|34=241|49=FGMLTEST|56=FMSSTEST|52=20250122-07:13:42.819|10=103|
20250122 07:14:12.819 - 8=FIXT.1.1|9=61|35=0|34=242|49=FGMLTEST|56=FMSSTEST|52=20250122-07:14:12.819|10=102|
20250122 07:14:42.819 - 8=FIXT.1.1|9=61|35=0|34=243|49=FGMLTEST|56=FMSSTEST|52=20250122-07:14:42.819|10=106|
20250122 07:15:12.819 - 8=FIXT.1.1|9=61|35=0|34=244|49=FGMLTEST|56=FMSSTEST|52=20250122-07:15:12.819|10=105|
20250122 07:15:42.819 - 8=FIXT.1.1|9=61|35=0|34=245|49=FGMLTEST|56=FMSSTEST|52=20250122-07:15:42.819|10=109|
20250122 07:16:12.819 - 8=FIXT.1.1|9=61|35=0|34=246|49=FGMLTEST|56=FMSSTEST|52=20250122-07:16:12.819|10=108|
20250122 07:16:42.819 - 8=FIXT.1.1|9=61|35=0|34=247|49=FGMLTEST|56=FMSSTEST|52=20250122-07:16:42.819|10=112|
20250122 07:17:12.819 - 8=FIXT.1.1|9=61|35=0|34=248|49=FGMLTEST|56=FMSSTEST|52=20250122-07:17:12.819|10=111|
20250122 07:17:42.819 - 8=FIXT.1.1|9=61|35=0|34=249|49=FGMLTEST|56=FMSSTEST|52=20250122-07:17:42.819|10=115|
20250122 07:18:12.819 - 8=FIXT.1.1|9=61|35=0|34=250|49=FGMLTEST|56=FMSSTEST|52=20250122-07:18:12.819|10=105|
20250122 07:18:42.819 - 8=FIXT.1.1|9=61|35=0|34=251|49=FGMLTEST|56=FMSSTEST|52=20250122-07:18:42.819|10=109|
20250122 07:19:12.819 - 8=FIXT.1.1|9=61|35=0|34=252|49=FGMLTEST|56=FMSSTEST|52=20250122-07:19:12.819|10=108|
20250122 07:19:42.819 - 8=FIXT.1.1|9=61|35=0|34=253|49=FGMLTEST|56=FMSSTEST|52=20250122-07:19:42.819|10=112|
20250122 07:20:12.819 - 8=FIXT.1.1|9=61|35=0|34=254|49=FGMLTEST|56=FMSSTEST|52=20250122-07:20:12.819|10=102|
20250122 07:20:42.820 - 8=FIXT.1.1|9=61|35=0|34=255|49=FGMLTEST|56=FMSSTEST|52=20250122-07:20:42.819|10=106|
20250122 07:21:13.844 - 8=FIXT.1.1|9=61|35=0|34=256|49=FGMLTEST|56=FMSSTEST|52=20250122-07:21:13.844|10=104|
20250122 07:21:44.819 - 8=FIXT.1.1|9=61|35=0|34=257|49=FGMLTEST|56=FMSSTEST|52=20250122-07:21:44.819|10=111|
20250122 07:22:14.819 - 8=FIXT.1.1|9=61|35=0|34=258|49=FGMLTEST|56=FMSSTEST|52=20250122-07:22:14.819|10=110|
20250122 07:22:45.072 - 8=FIXT.1.1|9=61|35=0|34=259|49=FGMLTEST|56=FMSSTEST|52=20250122-07:22:45.071|10=105|
20250122 07:23:16.079 - 8=FIXT.1.1|9=61|35=0|34=260|49=FGMLTEST|56=FMSSTEST|52=20250122-07:23:16.079|10=104|
20250122 07:23:46.819 - 8=FIXT.1.1|9=61|35=0|34=261|49=FGMLTEST|56=FMSSTEST|52=20250122-07:23:46.819|10=110|
20250122 07:24:16.823 - 8=FIXT.1.1|9=61|35=0|34=262|49=FGMLTEST|56=FMSSTEST|52=20250122-07:24:16.822|10=103|
20250122 07:24:47.819 - 8=FIXT.1.1|9=61|35=0|34=263|49=FGMLTEST|56=FMSSTEST|52=20250122-07:24:47.819|10=114|
20250122 07:25:17.819 - 8=FIXT.1.1|9=61|35=0|34=264|49=FGMLTEST|56=FMSSTEST|52=20250122-07:25:17.819|10=113|
20250122 07:25:47.819 - 8=FIXT.1.1|9=61|35=0|34=265|49=FGMLTEST|56=FMSSTEST|52=20250122-07:25:47.819|10=117|
20250122 07:26:17.819 - 8=FIXT.1.1|9=61|35=0|34=266|49=FGMLTEST|56=FMSSTEST|52=20250122-07:26:17.819|10=116|
20250122 07:26:47.819 - 8=FIXT.1.1|9=61|35=0|34=267|49=FGMLTEST|56=FMSSTEST|52=20250122-07:26:47.819|10=120|
20250122 07:27:17.819 - 8=FIXT.1.1|9=61|35=0|34=268|49=FGMLTEST|56=FMSSTEST|52=20250122-07:27:17.819|10=119|
20250122 07:27:47.819 - 8=FIXT.1.1|9=61|35=0|34=269|49=FGMLTEST|56=FMSSTEST|52=20250122-07:27:47.819|10=123|
20250122 07:28:17.819 - 8=FIXT.1.1|9=61|35=0|34=270|49=FGMLTEST|56=FMSSTEST|52=20250122-07:28:17.819|10=113|
20250122 07:28:47.819 - 8=FIXT.1.1|9=61|35=0|34=271|49=FGMLTEST|56=FMSSTEST|52=20250122-07:28:47.819|10=117|
20250122 07:29:17.819 - 8=FIXT.1.1|9=61|35=0|34=272|49=FGMLTEST|56=FMSSTEST|52=20250122-07:29:17.819|10=116|
20250122 07:29:47.822 - 8=FIXT.1.1|9=61|35=0|34=273|49=FGMLTEST|56=FMSSTEST|52=20250122-07:29:47.822|10=114|
20250122 07:30:18.819 - 8=FIXT.1.1|9=61|35=0|34=274|49=FGMLTEST|56=FMSSTEST|52=20250122-07:30:18.819|10=111|
20250122 07:30:48.819 - 8=FIXT.1.1|9=61|35=0|34=275|49=FGMLTEST|56=FMSSTEST|52=20250122-07:30:48.819|10=115|
20250122 07:31:18.819 - 8=FIXT.1.1|9=61|35=0|34=276|49=FGMLTEST|56=FMSSTEST|52=20250122-07:31:18.819|10=114|
20250122 07:31:48.819 - 8=FIXT.1.1|9=61|35=0|34=277|49=FGMLTEST|56=FMSSTEST|52=20250122-07:31:48.819|10=118|
20250122 07:32:19.287 - 8=FIXT.1.1|9=61|35=0|34=278|49=FGMLTEST|56=FMSSTEST|52=20250122-07:32:19.287|10=117|
20250122 07:32:49.819 - 8=FIXT.1.1|9=61|35=0|34=279|49=FGMLTEST|56=FMSSTEST|52=20250122-07:32:49.819|10=122|
20250122 07:33:19.819 - 8=FIXT.1.1|9=61|35=0|34=280|49=FGMLTEST|56=FMSSTEST|52=20250122-07:33:19.819|10=112|
20250122 07:33:49.819 - 8=FIXT.1.1|9=61|35=0|34=281|49=FGMLTEST|56=FMSSTEST|52=20250122-07:33:49.819|10=116|
20250122 07:34:19.819 - 8=FIXT.1.1|9=61|35=0|34=282|49=FGMLTEST|56=FMSSTEST|52=20250122-07:34:19.819|10=115|
20250122 07:34:49.839 - 8=FIXT.1.1|9=61|35=0|34=283|49=FGMLTEST|56=FMSSTEST|52=20250122-07:34:49.839|10=121|
20250122 07:35:20.819 - 8=FIXT.1.1|9=61|35=0|34=284|49=FGMLTEST|56=FMSSTEST|52=20250122-07:35:20.819|10=110|
20250122 07:35:50.819 - 8=FIXT.1.1|9=61|35=0|34=285|49=FGMLTEST|56=FMSSTEST|52=20250122-07:35:50.819|10=114|
20250122 07:36:20.819 - 8=FIXT.1.1|9=61|35=0|34=286|49=FGMLTEST|56=FMSSTEST|52=20250122-07:36:20.819|10=113|
20250122 07:36:50.819 - 8=FIXT.1.1|9=61|35=0|34=287|49=FGMLTEST|56=FMSSTEST|52=20250122-07:36:50.819|10=117|
20250122 07:37:20.819 - 8=FIXT.1.1|9=61|35=0|34=288|49=FGMLTEST|56=FMSSTEST|52=20250122-07:37:20.819|10=116|
20250122 07:37:50.819 - 8=FIXT.1.1|9=61|35=0|34=289|49=FGMLTEST|56=FMSSTEST|52=20250122-07:37:50.819|10=120|
20250122 07:38:20.819 - 8=FIXT.1.1|9=61|35=0|34=290|49=FGMLTEST|56=FMSSTEST|52=20250122-07:38:20.819|10=110|
20250122 07:38:50.819 - 8=FIXT.1.1|9=61|35=0|34=291|49=FGMLTEST|56=FMSSTEST|52=20250122-07:38:50.819|10=114|
20250122 07:39:20.819 - 8=FIXT.1.1|9=61|35=0|34=292|49=FGMLTEST|56=FMSSTEST|52=20250122-07:39:20.819|10=113|
20250122 07:39:50.819 - 8=FIXT.1.1|9=61|35=0|34=293|49=FGMLTEST|56=FMSSTEST|52=20250122-07:39:50.819|10=117|
20250122 07:40:20.819 - 8=FIXT.1.1|9=61|35=0|34=294|49=FGMLTEST|56=FMSSTEST|52=20250122-07:40:20.819|10=107|
20250122 07:40:50.819 - 8=FIXT.1.1|9=61|35=0|34=295|49=FGMLTEST|56=FMSSTEST|52=20250122-07:40:50.819|10=111|
20250122 07:41:20.819 - 8=FIXT.1.1|9=61|35=0|34=296|49=FGMLTEST|56=FMSSTEST|52=20250122-07:41:20.819|10=110|
20250122 07:41:50.824 - 8=FIXT.1.1|9=61|35=0|34=297|49=FGMLTEST|56=FMSSTEST|52=20250122-07:41:50.824|10=110|
20250122 07:42:21.819 - 8=FIXT.1.1|9=61|35=0|34=298|49=FGMLTEST|56=FMSSTEST|52=20250122-07:42:21.819|10=114|
20250122 07:42:51.819 - 8=FIXT.1.1|9=61|35=0|34=299|49=FGMLTEST|56=FMSSTEST|52=20250122-07:42:51.819|10=118|
20250122 07:43:21.819 - 8=FIXT.1.1|9=61|35=0|34=300|49=FGMLTEST|56=FMSSTEST|52=20250122-07:43:21.819|10=099|
20250122 07:43:51.819 - 8=FIXT.1.1|9=61|35=0|34=301|49=FGMLTEST|56=FMSSTEST|52=20250122-07:43:51.819|10=103|
20250122 07:44:21.819 - 8=FIXT.1.1|9=61|35=0|34=302|49=FGMLTEST|56=FMSSTEST|52=20250122-07:44:21.819|10=102|
20250122 07:44:51.819 - 8=FIXT.1.1|9=61|35=0|34=303|49=FGMLTEST|56=FMSSTEST|52=20250122-07:44:51.819|10=106|
20250122 07:45:21.819 - 8=FIXT.1.1|9=61|35=0|34=304|49=FGMLTEST|56=FMSSTEST|52=20250122-07:45:21.819|10=105|
20250122 07:45:51.819 - 8=FIXT.1.1|9=61|35=0|34=305|49=FGMLTEST|56=FMSSTEST|52=20250122-07:45:51.819|10=109|
20250122 07:46:21.819 - 8=FIXT.1.1|9=61|35=0|34=306|49=FGMLTEST|56=FMSSTEST|52=20250122-07:46:21.819|10=108|
20250122 07:46:51.819 - 8=FIXT.1.1|9=61|35=0|34=307|49=FGMLTEST|56=FMSSTEST|52=20250122-07:46:51.819|10=112|
20250122 07:47:21.819 - 8=FIXT.1.1|9=61|35=0|34=308|49=FGMLTEST|56=FMSSTEST|52=20250122-07:47:21.819|10=111|
20250122 07:47:51.819 - 8=FIXT.1.1|9=61|35=0|34=309|49=FGMLTEST|56=FMSSTEST|52=20250122-07:47:51.819|10=115|
20250122 07:48:21.819 - 8=FIXT.1.1|9=61|35=0|34=310|49=FGMLTEST|56=FMSSTEST|52=20250122-07:48:21.819|10=105|
20250122 07:48:51.819 - 8=FIXT.1.1|9=61|35=0|34=311|49=FGMLTEST|56=FMSSTEST|52=20250122-07:48:51.819|10=109|
20250122 07:49:21.819 - 8=FIXT.1.1|9=61|35=0|34=312|49=FGMLTEST|56=FMSSTEST|52=20250122-07:49:21.819|10=108|
20250122 07:49:51.819 - 8=FIXT.1.1|9=61|35=0|34=313|49=FGMLTEST|56=FMSSTEST|52=20250122-07:49:51.819|10=112|
20250122 07:50:21.819 - 8=FIXT.1.1|9=61|35=0|34=314|49=FGMLTEST|56=FMSSTEST|52=20250122-07:50:21.819|10=102|
20250122 07:50:51.819 - 8=FIXT.1.1|9=61|35=0|34=315|49=FGMLTEST|56=FMSSTEST|52=20250122-07:50:51.819|10=106|
20250122 07:51:21.819 - 8=FIXT.1.1|9=61|35=0|34=316|49=FGMLTEST|56=FMSSTEST|52=20250122-07:51:21.819|10=105|
20250122 07:51:51.819 - 8=FIXT.1.1|9=61|35=0|34=317|49=FGMLTEST|56=FMSSTEST|52=20250122-07:51:51.819|10=109|
20250122 07:52:21.819 - 8=FIXT.1.1|9=61|35=0|34=318|49=FGMLTEST|56=FMSSTEST|52=20250122-07:52:21.819|10=108|
20250122 07:52:51.819 - 8=FIXT.1.1|9=61|35=0|34=319|49=FGMLTEST|56=FMSSTEST|52=20250122-07:52:51.819|10=112|
20250122 07:53:21.819 - 8=FIXT.1.1|9=61|35=0|34=320|49=FGMLTEST|56=FMSSTEST|52=20250122-07:53:21.819|10=102|
20250122 07:53:51.819 - 8=FIXT.1.1|9=61|35=0|34=321|49=FGMLTEST|56=FMSSTEST|52=20250122-07:53:51.819|10=106|
20250122 07:54:21.819 - 8=FIXT.1.1|9=61|35=0|34=322|49=FGMLTEST|56=FMSSTEST|52=20250122-07:54:21.819|10=105|
20250122 07:54:51.819 - 8=FIXT.1.1|9=61|35=0|34=323|49=FGMLTEST|56=FMSSTEST|52=20250122-07:54:51.819|10=109|
20250122 07:55:21.819 - 8=FIXT.1.1|9=61|35=0|34=324|49=FGMLTEST|56=FMSSTEST|52=20250122-07:55:21.819|10=108|
20250122 07:55:51.819 - 8=FIXT.1.1|9=61|35=0|34=325|49=FGMLTEST|56=FMSSTEST|52=20250122-07:55:51.819|10=112|
20250122 07:56:21.819 - 8=FIXT.1.1|9=61|35=0|34=326|49=FGMLTEST|56=FMSSTEST|52=20250122-07:56:21.819|10=111|
20250122 07:56:51.819 - 8=FIXT.1.1|9=61|35=0|34=327|49=FGMLTEST|56=FMSSTEST|52=20250122-07:56:51.819|10=115|
20250122 07:57:21.819 - 8=FIXT.1.1|9=61|35=0|34=328|49=FGMLTEST|56=FMSSTEST|52=20250122-07:57:21.819|10=114|
20250122 07:57:51.819 - 8=FIXT.1.1|9=61|35=0|34=329|49=FGMLTEST|56=FMSSTEST|52=20250122-07:57:51.819|10=118|
20250122 07:58:21.819 - 8=FIXT.1.1|9=61|35=0|34=330|49=FGMLTEST|56=FMSSTEST|52=20250122-07:58:21.819|10=108|
20250122 07:58:51.819 - 8=FIXT.1.1|9=61|35=0|34=331|49=FGMLTEST|56=FMSSTEST|52=20250122-07:58:51.819|10=112|
20250122 07:59:21.819 - 8=FIXT.1.1|9=61|35=0|34=332|49=FGMLTEST|56=FMSSTEST|52=20250122-07:59:21.819|10=111|
20250122 07:59:51.819 - 8=FIXT.1.1|9=61|35=0|34=333|49=FGMLTEST|56=FMSSTEST|52=20250122-07:59:51.819|10=115|
20250122 08:00:21.819 - 8=FIXT.1.1|9=61|35=0|34=334|49=FGMLTEST|56=FMSSTEST|52=20250122-08:00:21.819|10=100|
20250122 08:00:51.819 - 8=FIXT.1.1|9=61|35=0|34=335|49=FGMLTEST|56=FMSSTEST|52=20250122-08:00:51.819|10=104|
20250122 08:01:21.819 - 8=FIXT.1.1|9=61|35=0|34=336|49=FGMLTEST|56=FMSSTEST|52=20250122-08:01:21.819|10=103|
20250122 08:01:51.819 - 8=FIXT.1.1|9=61|35=0|34=337|49=FGMLTEST|56=FMSSTEST|52=20250122-08:01:51.819|10=107|
20250122 08:02:21.819 - 8=FIXT.1.1|9=61|35=0|34=338|49=FGMLTEST|56=FMSSTEST|52=20250122-08:02:21.819|10=106|
20250122 08:02:51.819 - 8=FIXT.1.1|9=61|35=0|34=339|49=FGMLTEST|56=FMSSTEST|52=20250122-08:02:51.819|10=110|
20250122 08:03:21.820 - 8=FIXT.1.1|9=61|35=0|34=340|49=FGMLTEST|56=FMSSTEST|52=20250122-08:03:21.819|10=100|
20250122 08:03:52.819 - 8=FIXT.1.1|9=61|35=0|34=341|49=FGMLTEST|56=FMSSTEST|52=20250122-08:03:52.819|10=105|
20250122 08:04:22.819 - 8=FIXT.1.1|9=61|35=0|34=342|49=FGMLTEST|56=FMSSTEST|52=20250122-08:04:22.819|10=104|
20250122 08:04:52.819 - 8=FIXT.1.1|9=61|35=0|34=343|49=FGMLTEST|56=FMSSTEST|52=20250122-08:04:52.819|10=108|
20250122 08:05:22.819 - 8=FIXT.1.1|9=61|35=0|34=344|49=FGMLTEST|56=FMSSTEST|52=20250122-08:05:22.819|10=107|
20250122 08:05:52.819 - 8=FIXT.1.1|9=61|35=0|34=345|49=FGMLTEST|56=FMSSTEST|52=20250122-08:05:52.819|10=111|
20250122 08:06:22.819 - 8=FIXT.1.1|9=61|35=0|34=346|49=FGMLTEST|56=FMSSTEST|52=20250122-08:06:22.819|10=110|
20250122 08:06:52.819 - 8=FIXT.1.1|9=61|35=0|34=347|49=FGMLTEST|56=FMSSTEST|52=20250122-08:06:52.819|10=114|
20250122 08:07:22.819 - 8=FIXT.1.1|9=61|35=0|34=348|49=FGMLTEST|56=FMSSTEST|52=20250122-08:07:22.819|10=113|
20250122 08:07:52.819 - 8=FIXT.1.1|9=61|35=0|34=349|49=FGMLTEST|56=FMSSTEST|52=20250122-08:07:52.819|10=117|
20250122 08:08:22.819 - 8=FIXT.1.1|9=61|35=0|34=350|49=FGMLTEST|56=FMSSTEST|52=20250122-08:08:22.819|10=107|
20250122 08:08:52.819 - 8=FIXT.1.1|9=61|35=0|34=351|49=FGMLTEST|56=FMSSTEST|52=20250122-08:08:52.819|10=111|
20250122 08:09:22.819 - 8=FIXT.1.1|9=61|35=0|34=352|49=FGMLTEST|56=FMSSTEST|52=20250122-08:09:22.819|10=110|
20250122 08:09:52.819 - 8=FIXT.1.1|9=61|35=0|34=353|49=FGMLTEST|56=FMSSTEST|52=20250122-08:09:52.819|10=114|
20250122 08:10:22.819 - 8=FIXT.1.1|9=61|35=0|34=354|49=FGMLTEST|56=FMSSTEST|52=20250122-08:10:22.819|10=104|
20250122 08:10:52.819 - 8=FIXT.1.1|9=61|35=0|34=355|49=FGMLTEST|56=FMSSTEST|52=20250122-08:10:52.819|10=108|
20250122 08:11:23.088 - 8=FIXT.1.1|9=61|35=0|34=356|49=FGMLTEST|56=FMSSTEST|52=20250122-08:11:23.088|10=106|
20250122 08:11:53.819 - 8=FIXT.1.1|9=61|35=0|34=357|49=FGMLTEST|56=FMSSTEST|52=20250122-08:11:53.819|10=112|
20250122 08:12:23.819 - 8=FIXT.1.1|9=61|35=0|34=358|49=FGMLTEST|56=FMSSTEST|52=20250122-08:12:23.819|10=111|
20250122 08:12:53.819 - 8=FIXT.1.1|9=61|35=0|34=359|49=FGMLTEST|56=FMSSTEST|52=20250122-08:12:53.819|10=115|
20250122 08:13:23.819 - 8=FIXT.1.1|9=61|35=0|34=360|49=FGMLTEST|56=FMSSTEST|52=20250122-08:13:23.819|10=105|
20250122 08:13:53.819 - 8=FIXT.1.1|9=61|35=0|34=361|49=FGMLTEST|56=FMSSTEST|52=20250122-08:13:53.819|10=109|
20250122 08:14:23.819 - 8=FIXT.1.1|9=61|35=0|34=362|49=FGMLTEST|56=FMSSTEST|52=20250122-08:14:23.819|10=108|
20250122 08:14:53.819 - 8=FIXT.1.1|9=61|35=0|34=363|49=FGMLTEST|56=FMSSTEST|52=20250122-08:14:53.819|10=112|
20250122 08:15:23.819 - 8=FIXT.1.1|9=61|35=0|34=364|49=FGMLTEST|56=FMSSTEST|52=20250122-08:15:23.819|10=111|
20250122 08:15:53.819 - 8=FIXT.1.1|9=61|35=0|34=365|49=FGMLTEST|56=FMSSTEST|52=20250122-08:15:53.819|10=115|
20250122 08:16:23.819 - 8=FIXT.1.1|9=61|35=0|34=366|49=FGMLTEST|56=FMSSTEST|52=20250122-08:16:23.819|10=114|
20250122 08:16:53.819 - 8=FIXT.1.1|9=61|35=0|34=367|49=FGMLTEST|56=FMSSTEST|52=20250122-08:16:53.819|10=118|
20250122 08:17:23.819 - 8=FIXT.1.1|9=61|35=0|34=368|49=FGMLTEST|56=FMSSTEST|52=20250122-08:17:23.819|10=117|
20250122 08:17:53.819 - 8=FIXT.1.1|9=61|35=0|34=369|49=FGMLTEST|56=FMSSTEST|52=20250122-08:17:53.819|10=121|
20250122 08:18:23.819 - 8=FIXT.1.1|9=61|35=0|34=370|49=FGMLTEST|56=FMSSTEST|52=20250122-08:18:23.819|10=111|
20250122 08:18:53.819 - 8=FIXT.1.1|9=61|35=0|34=371|49=FGMLTEST|56=FMSSTEST|52=20250122-08:18:53.819|10=115|
20250122 08:19:23.819 - 8=FIXT.1.1|9=61|35=0|34=372|49=FGMLTEST|56=FMSSTEST|52=20250122-08:19:23.819|10=114|
20250122 08:19:53.819 - 8=FIXT.1.1|9=61|35=0|34=373|49=FGMLTEST|56=FMSSTEST|52=20250122-08:19:53.819|10=118|
20250122 08:20:23.819 - 8=FIXT.1.1|9=61|35=0|34=374|49=FGMLTEST|56=FMSSTEST|52=20250122-08:20:23.819|10=108|
20250122 08:20:54.789 - 8=FIXT.1.1|9=61|35=0|34=375|49=FGMLTEST|56=FMSSTEST|52=20250122-08:20:54.789|10=119|
20250122 08:21:24.819 - 8=FIXT.1.1|9=61|35=0|34=376|49=FGMLTEST|56=FMSSTEST|52=20250122-08:21:24.819|10=112|
20250122 08:21:55.317 - 8=FIXT.1.1|9=61|35=0|34=377|49=FGMLTEST|56=FMSSTEST|52=20250122-08:21:55.317|10=110|
20250122 08:22:25.819 - 8=FIXT.1.1|9=61|35=0|34=378|49=FGMLTEST|56=FMSSTEST|52=20250122-08:22:25.819|10=116|
20250122 08:22:55.819 - 8=FIXT.1.1|9=61|35=0|34=379|49=FGMLTEST|56=FMSSTEST|52=20250122-08:22:55.819|10=120|
20250122 08:23:25.819 - 8=FIXT.1.1|9=61|35=0|34=380|49=FGMLTEST|56=FMSSTEST|52=20250122-08:23:25.819|10=110|
20250122 08:23:55.819 - 8=FIXT.1.1|9=61|35=0|34=381|49=FGMLTEST|56=FMSSTEST|52=20250122-08:23:55.819|10=114|
20250122 08:24:25.819 - 8=FIXT.1.1|9=61|35=0|34=382|49=FGMLTEST|56=FMSSTEST|52=20250122-08:24:25.819|10=113|
20250122 08:24:55.819 - 8=FIXT.1.1|9=61|35=0|34=383|49=FGMLTEST|56=FMSSTEST|52=20250122-08:24:55.819|10=117|
20250122 08:25:25.819 - 8=FIXT.1.1|9=61|35=0|34=384|49=FGMLTEST|56=FMSSTEST|52=20250122-08:25:25.819|10=116|
20250122 08:25:56.389 - 8=FIXT.1.1|9=61|35=0|34=385|49=FGMLTEST|56=FMSSTEST|52=20250122-08:25:56.388|10=122|
20250122 08:26:26.819 - 8=FIXT.1.1|9=61|35=0|34=386|49=FGMLTEST|56=FMSSTEST|52=20250122-08:26:26.819|10=120|
20250122 08:26:56.819 - 8=FIXT.1.1|9=61|35=0|34=387|49=FGMLTEST|56=FMSSTEST|52=20250122-08:26:56.819|10=124|
20250122 08:27:26.819 - 8=FIXT.1.1|9=61|35=0|34=388|49=FGMLTEST|56=FMSSTEST|52=20250122-08:27:26.819|10=123|
20250122 08:27:56.819 - 8=FIXT.1.1|9=61|35=0|34=389|49=FGMLTEST|56=FMSSTEST|52=20250122-08:27:56.819|10=127|
20250122 08:28:26.819 - 8=FIXT.1.1|9=61|35=0|34=390|49=FGMLTEST|56=FMSSTEST|52=20250122-08:28:26.819|10=117|
20250122 08:28:56.951 - 8=FIXT.1.1|9=61|35=0|34=391|49=FGMLTEST|56=FMSSTEST|52=20250122-08:28:56.950|10=117|
20250122 08:29:27.819 - 8=FIXT.1.1|9=61|35=0|34=392|49=FGMLTEST|56=FMSSTEST|52=20250122-08:29:27.819|10=121|
20250122 08:29:57.819 - 8=FIXT.1.1|9=61|35=0|34=393|49=FGMLTEST|56=FMSSTEST|52=20250122-08:29:57.819|10=125|
20250122 08:30:06.153 - 8=FIXT.1.1|9=300|35=8|34=394|49=FGMLTEST|56=FMSSTEST|52=20250122-08:30:06.153|17=106494101|37=106494101|150=0|39=0|40=4|38=2|55=AGTHIAUSD|167=ESVUFR|453=3|448=FGML|447=G|452=22|448=FGML|447=G|452=73|448=237477|447=D|452=3|54=2|59=1|60=20250122-08:30:06.113|151=2|14=0|6=0|1=237477|581=1|423=3|44=46|99=48|75=20250122|10=078|
20250122 08:30:26.340 - 8=FIXT.1.1|9=294|35=8|34=395|49=FGMLTEST|56=FMSSTEST|52=20250122-08:30:26.340|17=106495101|37=106495101|150=0|39=0|40=2|38=1|55=AGTHIAUSD|167=ESVUFR|453=3|448=FGML|447=G|452=22|448=FGML|447=G|452=73|448=237477|447=D|452=3|54=2|59=1|60=20250122-08:30:26.305|151=1|14=0|6=0|1=237477|581=1|423=3|44=46|75=20250122|10=066|
20250122 08:30:52.554 - 8=FIXT.1.1|9=313|35=8|34=396|49=FGMLTEST|56=FMSSTEST|52=20250122-08:30:52.554|17=106496101|37=106496101|150=0|39=0|40=2|38=1|55=AGTHIAUSD|167=ESVUFR|453=4|448=7|447=C|452=1|448=FGML|447=G|452=22|448=FGML|447=G|452=73|448=163182|447=D|452=12|54=1|59=1|60=20250122-08:30:52.418|151=1|14=0|6=0|1=163182|581=2|423=3|44=46|75=20250122|10=165|
20250122 08:30:52.557 - 8=FIXT.1.1|9=295|35=8|34=397|49=FGMLTEST|56=FMSSTEST|52=20250122-08:30:52.557|17=106495101|37=106495101|150=5|39=2|40=2|38=1|55=AGTHIAUSD|167=ESVUFR|453=3|448=FGML|447=G|452=22|448=FGML|447=G|452=73|448=237477|447=D|452=3|54=2|59=1|60=20250122-08:30:52.418|151=0|14=1|6=46|1=237477|581=1|423=3|44=46|75=20250122|10=147|
20250122 08:30:52.562 - 8=FIXT.1.1|9=314|35=8|34=398|49=FGMLTEST|56=FMSSTEST|52=20250122-08:30:52.562|17=106496101|37=106496101|150=5|39=2|40=2|38=1|55=AGTHIAUSD|167=ESVUFR|453=4|448=7|447=C|452=1|448=FGML|447=G|452=22|448=FGML|447=G|452=73|448=163182|447=D|452=12|54=1|59=1|60=20250122-08:30:52.418|151=0|14=1|6=46|1=163182|581=2|423=3|44=46|75=20250122|10=232|
20250122 08:30:52.563 - 8=FIXT.1.1|9=492|35=AE|34=399|49=FGMLTEST|56=FMSSTEST|52=20250122-08:30:52.563|32=1|31=46|423=3|1116=1|1117=FGML|1118=D|1119=73|55=AGTHIAUSD|167=ESVUFR|60=20250122-08:30:52.418|487=0|1003=106496101-106495101|1301=FGML|1300=FGML|552=2|54=2|453=3|448=FGML|447=G|452=22|448=FGML|447=G|452=73|448=237477|447=D|452=3|1=237477|581=1|1057=N|37=106495101|151=0|54=1|453=4|448=7|447=C|452=1|448=FGML|447=G|452=22|448=FGML|447=G|452=73|448=163182|447=D|452=12|1=163182|581=2|1057=Y|37=106496101|151=0|75=20250122|574=4|10=214|
20250122 08:31:22.819 - 8=FIXT.1.1|9=61|35=0|34=400|49=FGMLTEST|56=FMSSTEST|52=20250122-08:31:22.819|10=099|
20250122 08:31:27.309 - 8=FIXT.1.1|9=300|35=8|34=401|49=FGMLTEST|56=FMSSTEST|52=20250122-08:31:27.309|17=106494101|37=106494101|150=4|39=4|40=4|38=2|55=AGTHIAUSD|167=ESVUFR|453=3|448=FGML|447=G|452=22|448=FGML|447=G|452=73|448=237477|447=D|452=3|54=2|59=1|60=20250122-08:31:27.280|151=0|14=0|6=0|1=237477|581=1|423=3|44=46|99=48|75=20250122|10=089|
20250122 08:31:57.819 - 8=FIXT.1.1|9=61|35=0|34=402|49=FGMLTEST|56=FMSSTEST|52=20250122-08:31:57.819|10=109|
20250122 08:32:28.544 - 8=FIXT.1.1|9=61|35=0|34=403|49=FGMLTEST|56=FMSSTEST|52=20250122-08:32:28.544|10=104|
20250122 08:32:58.553 - 8=FIXT.1.1|9=61|35=0|34=404|49=FGMLTEST|56=FMSSTEST|52=20250122-08:32:58.553|10=108|
20250122 08:33:28.819 - 8=FIXT.1.1|9=61|35=0|34=405|49=FGMLTEST|56=FMSSTEST|52=20250122-08:33:28.819|10=112|
20250122 08:33:58.819 - 8=FIXT.1.1|9=61|35=0|34=406|49=FGMLTEST|56=FMSSTEST|52=20250122-08:33:58.819|10=116|
20250122 08:34:28.819 - 8=FIXT.1.1|9=61|35=0|34=407|49=FGMLTEST|56=FMSSTEST|52=20250122-08:34:28.819|10=115|
20250122 08:34:58.819 - 8=FIXT.1.1|9=61|35=0|34=408|49=FGMLTEST|56=FMSSTEST|52=20250122-08:34:58.819|10=119|
20250122 08:35:28.819 - 8=FIXT.1.1|9=61|35=0|34=409|49=FGMLTEST|56=FMSSTEST|52=20250122-08:35:28.819|10=118|
20250122 08:35:38.647 - 8=FIXT.1.1|9=300|35=8|34=410|49=FGMLTEST|56=FMSSTEST|52=20250122-08:35:38.647|17=106497101|37=106497101|150=0|39=0|40=4|38=2|55=AGTHIAUSD|167=ESVUFR|453=3|448=FGML|447=G|452=22|448=FGML|447=G|452=73|448=237477|447=D|452=3|54=2|59=1|60=20250122-08:35:38.516|151=2|14=0|6=0|1=237477|581=1|423=3|44=42|99=44|75=20250122|10=100|
20250122 08:36:07.229 - 8=FIXT.1.1|9=294|35=8|34=411|49=FGMLTEST|56=FMSSTEST|52=20250122-08:36:07.229|17=106498101|37=106498101|150=0|39=0|40=2|38=1|55=AGTHIAUSD|167=ESVUFR|453=3|448=FGML|447=G|452=22|448=FGML|447=G|452=73|448=237477|447=D|452=3|54=2|59=1|60=20250122-08:36:07.198|151=1|14=0|6=0|1=237477|581=1|423=3|44=44|75=20250122|10=085|
20250122 08:36:19.160 - 8=FIXT.1.1|9=313|35=8|34=412|49=FGMLTEST|56=FMSSTEST|52=20250122-08:36:19.160|17=106499101|37=106499101|150=0|39=0|40=2|38=1|55=AGTHIAUSD|167=ESVUFR|453=4|448=7|447=C|452=1|448=FGML|447=G|452=22|448=FGML|447=G|452=73|448=163182|447=D|452=12|54=1|59=1|60=20250122-08:36:18.906|151=1|14=0|6=0|1=163182|581=2|423=3|44=42|75=20250122|10=168|
20250122 08:36:28.431 - 8=FIXT.1.1|9=313|35=8|34=413|49=FGMLTEST|56=FMSSTEST|52=20250122-08:36:28.431|17=106500101|37=106500101|150=0|39=0|40=2|38=1|55=AGTHIAUSD|167=ESVUFR|453=4|448=7|447=C|452=1|448=FGML|447=G|452=22|448=FGML|447=G|452=73|448=163182|447=D|452=12|54=1|59=1|60=20250122-08:36:28.382|151=1|14=0|6=0|1=163182|581=2|423=3|44=44|75=20250122|10=137|
20250122 08:36:28.434 - 8=FIXT.1.1|9=295|35=8|34=414|49=FGMLTEST|56=FMSSTEST|52=20250122-08:36:28.434|17=106498101|37=106498101|150=5|39=2|40=2|38=1|55=AGTHIAUSD|167=ESVUFR|453=3|448=FGML|447=G|452=22|448=FGML|447=G|452=73|448=237477|447=D|452=3|54=2|59=1|60=20250122-08:36:28.382|151=0|14=1|6=44|1=237477|581=1|423=3|44=44|75=20250122|10=151|
20250122 08:36:28.436 - 8=FIXT.1.1|9=314|35=8|34=415|49=FGMLTEST|56=FMSSTEST|52=20250122-08:36:28.436|17=106500101|37=106500101|150=5|39=2|40=2|38=1|55=AGTHIAUSD|167=ESVUFR|453=4|448=7|447=C|452=1|448=FGML|447=G|452=22|448=FGML|447=G|452=73|448=163182|447=D|452=12|54=1|59=1|60=20250122-08:36:28.382|151=0|14=1|6=44|1=163182|581=2|423=3|44=44|75=20250122|10=208|
20250122 08:36:28.438 - 8=FIXT.1.1|9=492|35=AE|34=416|49=FGMLTEST|56=FMSSTEST|52=20250122-08:36:28.438|32=1|31=44|423=3|1116=1|1117=FGML|1118=D|1119=73|55=AGTHIAUSD|167=ESVUFR|60=20250122-08:36:28.382|487=0|1003=106500101-106498101|1301=FGML|1300=FGML|552=2|54=2|453=3|448=FGML|447=G|452=22|448=FGML|447=G|452=73|448=237477|447=D|452=3|1=237477|581=1|1057=N|37=106498101|151=0|54=1|453=4|448=7|447=C|452=1|448=FGML|447=G|452=22|448=FGML|447=G|452=73|448=163182|447=D|452=12|1=163182|581=2|1057=Y|37=106500101|151=0|75=20250122|574=4|10=199|
20250122 08:36:28.440 - 8=FIXT.1.1|9=300|35=8|34=417|49=FGMLTEST|56=FMSSTEST|52=20250122-08:36:28.440|17=106497101|37=106497101|150=0|39=0|40=2|38=2|55=AGTHIAUSD|167=ESVUFR|453=3|448=FGML|447=G|452=22|448=FGML|447=G|452=73|448=237477|447=D|452=3|54=2|59=1|60=20250122-08:35:38.516|151=2|14=0|6=0|1=237477|581=1|423=3|44=42|99=44|75=20250122|10=096|
20250122 08:36:28.442 - 8=FIXT.1.1|9=301|35=8|34=418|49=FGMLTEST|56=FMSSTEST|52=20250122-08:36:28.442|17=106497101|37=106497101|150=5|39=1|40=2|38=2|55=AGTHIAUSD|167=ESVUFR|453=3|448=FGML|447=G|452=22|448=FGML|447=G|452=73|448=237477|447=D|452=3|54=2|59=1|60=20250122-08:36:28.382|151=1|14=1|6=42|1=237477|581=1|423=3|44=42|99=44|75=20250122|10=161|
20250122 08:36:28.444 - 8=FIXT.1.1|9=314|35=8|34=419|49=FGMLTEST|56=FMSSTEST|52=20250122-08:36:28.444|17=106499101|37=106499101|150=5|39=2|40=2|38=1|55=AGTHIAUSD|167=ESVUFR|453=4|448=7|447=C|452=1|448=FGML|447=G|452=22|448=FGML|447=G|452=73|448=163182|447=D|452=12|54=1|59=1|60=20250122-08:36:28.382|151=0|14=1|6=42|1=163182|581=2|423=3|44=42|75=20250122|10=241|
20250122 08:36:28.446 - 8=FIXT.1.1|9=492|35=AE|34=420|49=FGMLTEST|56=FMSSTEST|52=20250122-08:36:28.446|32=1|31=42|423=3|1116=1|1117=FGML|1118=D|1119=73|55=AGTHIAUSD|167=ESVUFR|60=20250122-08:36:28.382|487=0|1003=106499101-106497101|1301=FGML|1300=FGML|552=2|54=2|453=3|448=FGML|447=G|452=22|448=FGML|447=G|452=73|448=237477|447=D|452=3|1=237477|581=1|1057=Y|37=106497101|151=1|54=1|453=4|448=7|447=C|452=1|448=FGML|447=G|452=22|448=FGML|447=G|452=73|448=163182|447=D|452=12|1=163182|581=2|1057=N|37=106499101|151=0|75=20250122|574=4|10=224|
20250122 08:36:35.087 - 8=FIXT.1.1|9=301|35=8|34=421|49=FGMLTEST|56=FMSSTEST|52=20250122-08:36:35.087|17=106497101|37=106497101|150=4|39=4|40=4|38=2|55=AGTHIAUSD|167=ESVUFR|453=3|448=FGML|447=G|452=22|448=FGML|447=G|452=73|448=237477|447=D|452=3|54=2|59=1|60=20250122-08:36:35.046|151=0|14=1|6=42|1=237477|581=1|423=3|44=42|99=44|75=20250122|10=156|
20250122 08:37:05.819 - 8=FIXT.1.1|9=61|35=0|34=422|49=FGMLTEST|56=FMSSTEST|52=20250122-08:37:05.819|10=110|
20250122 08:37:35.820 - 8=FIXT.1.1|9=61|35=0|34=423|49=FGMLTEST|56=FMSSTEST|52=20250122-08:37:35.819|10=114|
20250122 08:38:06.819 - 8=FIXT.1.1|9=61|35=0|34=424|49=FGMLTEST|56=FMSSTEST|52=20250122-08:38:06.819|10=114|
20250122 08:38:36.819 - 8=FIXT.1.1|9=61|35=0|34=425|49=FGMLTEST|56=FMSSTEST|52=20250122-08:38:36.819|10=118|
20250122 08:38:47.190 - 8=FIXT.1.1|9=300|35=8|34=426|49=FGMLTEST|56=FMSSTEST|52=20250122-08:38:47.190|17=106501101|37=106501101|150=0|39=0|40=4|38=2|55=AGTHIAUSD|167=ESVUFR|453=3|448=FGML|447=G|452=22|448=FGML|447=G|452=73|448=237477|447=D|452=3|54=1|59=1|60=20250122-08:38:46.382|151=2|14=0|6=0|1=237477|581=1|423=3|44=46|99=44|75=20250122|10=081|
20250122 08:39:01.705 - 8=FIXT.1.1|9=294|35=8|34=427|49=FGMLTEST|56=FMSSTEST|52=20250122-08:39:01.705|17=106502101|37=106502101|150=0|39=0|40=2|38=1|55=AGTHIAUSD|167=ESVUFR|453=3|448=FGML|447=G|452=22|448=FGML|447=G|452=73|448=237477|447=D|452=3|54=1|59=1|60=20250122-08:39:01.013|151=1|14=0|6=0|1=237477|581=1|423=3|44=44|75=20250122|10=042|
20250122 08:39:24.005 - 8=FIXT.1.1|9=313|35=8|34=428|49=FGMLTEST|56=FMSSTEST|52=20250122-08:39:24.005|17=106503101|37=106503101|150=0|39=0|40=2|38=1|55=AGTHIAUSD|167=ESVUFR|453=4|448=7|447=C|452=1|448=FGML|447=G|452=22|448=FGML|447=G|452=73|448=163182|447=D|452=12|54=2|59=1|60=20250122-08:39:23.963|151=1|14=0|6=0|1=163182|581=2|423=3|44=46|75=20250122|10=151|
20250122 08:39:28.597 - 8=FIXT.1.1|9=313|35=8|34=429|49=FGMLTEST|56=FMSSTEST|52=20250122-08:39:28.597|17=106504101|37=106504101|150=0|39=0|40=2|38=1|55=AGTHIAUSD|167=ESVUFR|453=4|448=7|447=C|452=1|448=FGML|447=G|452=22|448=FGML|447=G|452=73|448=163182|447=D|452=12|54=2|59=1|60=20250122-08:39:28.556|151=1|14=0|6=0|1=163182|581=2|423=3|44=44|75=20250122|10=175|
20250122 08:39:28.598 - 8=FIXT.1.1|9=314|35=8|34=430|49=FGMLTEST|56=FMSSTEST|52=20250122-08:39:28.598|17=106504101|37=106504101|150=5|39=2|40=2|38=1|55=AGTHIAUSD|167=ESVUFR|453=4|448=7|447=C|452=1|448=FGML|447=G|452=22|448=FGML|447=G|452=73|448=163182|447=D|452=12|54=2|59=1|60=20250122-08:39:28.556|151=0|14=1|6=44|1=163182|581=2|423=3|44=44|75=20250122|10=232|
20250122 08:39:28.599 - 8=FIXT.1.1|9=295|35=8|34=431|49=FGMLTEST|56=FMSSTEST|52=20250122-08:39:28.599|17=106502101|37=106502101|150=5|39=2|40=2|38=1|55=AGTHIAUSD|167=ESVUFR|453=3|448=FGML|447=G|452=22|448=FGML|447=G|452=73|448=237477|447=D|452=3|54=1|59=1|60=20250122-08:39:28.556|151=0|14=1|6=44|1=237477|581=1|423=3|44=44|75=20250122|10=142|
20250122 08:39:28.600 - 8=FIXT.1.1|9=492|35=AE|34=432|49=FGMLTEST|56=FMSSTEST|52=20250122-08:39:28.600|32=1|31=44|423=3|1116=1|1117=FGML|1118=D|1119=73|55=AGTHIAUSD|167=ESVUFR|60=20250122-08:39:28.556|487=0|1003=106502101-106504101|1301=FGML|1300=FGML|552=2|54=2|453=4|448=7|447=C|452=1|448=FGML|447=G|452=22|448=FGML|447=G|452=73|448=163182|447=D|452=12|1=163182|581=2|1057=Y|37=106504101|151=0|54=1|453=3|448=FGML|447=G|452=22|448=FGML|447=G|452=73|448=237477|447=D|452=3|1=237477|581=1|1057=N|37=106502101|151=0|75=20250122|574=4|10=177|
20250122 08:39:28.601 - 8=FIXT.1.1|9=300|35=8|34=433|49=FGMLTEST|56=FMSSTEST|52=20250122-08:39:28.601|17=106501101|37=106501101|150=0|39=0|40=2|38=2|55=AGTHIAUSD|167=ESVUFR|453=3|448=FGML|447=G|452=22|448=FGML|447=G|452=73|448=237477|447=D|452=3|54=1|59=1|60=20250122-08:38:46.382|151=2|14=0|6=0|1=237477|581=1|423=3|44=46|99=44|75=20250122|10=074|
20250122 08:39:28.602 - 8=FIXT.1.1|9=314|35=8|34=434|49=FGMLTEST|56=FMSSTEST|52=20250122-08:39:28.602|17=106503101|37=106503101|150=5|39=2|40=2|38=1|55=AGTHIAUSD|167=ESVUFR|453=4|448=7|447=C|452=1|448=FGML|447=G|452=22|448=FGML|447=G|452=73|448=163182|447=D|452=12|54=2|59=1|60=20250122-08:39:28.556|151=0|14=1|6=46|1=163182|581=2|423=3|44=46|75=20250122|10=224|
20250122 08:39:28.603 - 8=FIXT.1.1|9=301|35=8|34=435|49=FGMLTEST|56=FMSSTEST|52=20250122-08:39:28.603|17=106501101|37=106501101|150=5|39=1|40=2|38=2|55=AGTHIAUSD|167=ESVUFR|453=3|448=FGML|447=G|452=22|448=FGML|447=G|452=73|448=237477|447=D|452=3|54=1|59=1|60=20250122-08:39:28.556|151=1|14=1|6=46|1=237477|581=1|423=3|44=46|99=44|75=20250122|10=147|
20250122 08:39:28.605 - 8=FIXT.1.1|9=492|35=AE|34=436|49=FGMLTEST|56=FMSSTEST|52=20250122-08:39:28.605|32=1|31=46|423=3|1116=1|1117=FGML|1118=D|1119=73|55=AGTHIAUSD|167=ESVUFR|60=20250122-08:39:28.556|487=0|1003=106501101-106503101|1301=FGML|1300=FGML|552=2|54=2|453=4|448=7|447=C|452=1|448=FGML|447=G|452=22|448=FGML|447=G|452=73|448=163182|447=D|452=12|1=163182|581=2|1057=N|37=106503101|151=0|54=1|453=3|448=FGML|447=G|452=22|448=FGML|447=G|452=73|448=237477|447=D|452=3|1=237477|581=1|1057=Y|37=106501101|151=1|75=20250122|574=4|10=185|
20250122 08:39:34.882 - 8=FIXT.1.1|9=301|35=8|34=437|49=FGMLTEST|56=FMSSTEST|52=20250122-08:39:34.882|17=106501101|37=106501101|150=4|39=4|40=4|38=2|55=AGTHIAUSD|167=ESVUFR|453=3|448=FGML|447=G|452=22|448=FGML|447=G|452=73|448=237477|447=D|452=3|54=1|59=1|60=20250122-08:39:34.846|151=0|14=1|6=46|1=237477|581=1|423=3|44=46|99=44|75=20250122|10=157|
20250122 08:40:05.819 - 8=FIXT.1.1|9=61|35=0|34=438|49=FGMLTEST|56=FMSSTEST|52=20250122-08:40:05.819|10=111|
20250122 08:40:32.141 - 8=FIXT.1.1|9=300|35=8|34=439|49=FGMLTEST|56=FMSSTEST|52=20250122-08:40:32.141|17=106505101|37=106505101|150=0|39=0|40=4|38=1|55=AGTHIAUSD|167=ESVUFR|453=3|448=FGML|447=G|452=22|448=FGML|447=G|452=73|448=237477|447=D|452=3|54=1|59=1|60=20250122-08:40:32.106|151=1|14=0|6=0|1=237477|581=1|423=3|44=50|99=48|75=20250122|10=055|
20250122 08:40:36.730 - 8=FIXT.1.1|9=300|35=8|34=440|49=FGMLTEST|56=FMSSTEST|52=20250122-08:40:36.730|17=106505101|37=106505101|150=4|39=4|40=4|38=1|55=AGTHIAUSD|167=ESVUFR|453=3|448=FGML|447=G|452=22|448=FGML|447=G|452=73|448=237477|447=D|452=3|54=1|59=1|60=20250122-08:40:36.506|151=0|14=0|6=0|1=237477|581=1|423=3|44=50|99=48|75=20250122|10=070|
20250122 08:41:06.819 - 8=FIXT.1.1|9=61|35=0|34=441|49=FGMLTEST|56=FMSSTEST|52=20250122-08:41:06.819|10=107|
20250122 08:41:36.819 - 8=FIXT.1.1|9=61|35=0|34=442|49=FGMLTEST|56=FMSSTEST|52=20250122-08:41:36.819|10=111|
20250122 08:42:06.819 - 8=FIXT.1.1|9=61|35=0|34=443|49=FGMLTEST|56=FMSSTEST|52=20250122-08:42:06.819|10=110|
20250122 08:42:36.819 - 8=FIXT.1.1|9=61|35=0|34=444|49=FGMLTEST|56=FMSSTEST|52=20250122-08:42:36.819|10=114|
20250122 08:43:06.819 - 8=FIXT.1.1|9=61|35=0|34=445|49=FGMLTEST|56=FMSSTEST|52=20250122-08:43:06.819|10=113|
20250122 08:43:36.819 - 8=FIXT.1.1|9=61|35=0|34=446|49=FGMLTEST|56=FMSSTEST|52=20250122-08:43:36.819|10=117|
20250122 08:44:06.819 - 8=FIXT.1.1|9=61|35=0|34=447|49=FGMLTEST|56=FMSSTEST|52=20250122-08:44:06.819|10=116|
20250122 08:44:36.819 - 8=FIXT.1.1|9=61|35=0|34=448|49=FGMLTEST|56=FMSSTEST|52=20250122-08:44:36.819|10=120|
20250122 08:45:06.819 - 8=FIXT.1.1|9=61|35=0|34=449|49=FGMLTEST|56=FMSSTEST|52=20250122-08:45:06.819|10=119|
20250122 08:45:36.819 - 8=FIXT.1.1|9=61|35=0|34=450|49=FGMLTEST|56=FMSSTEST|52=20250122-08:45:36.819|10=114|
20250122 08:46:06.819 - 8=FIXT.1.1|9=61|35=0|34=451|49=FGMLTEST|56=FMSSTEST|52=20250122-08:46:06.819|10=113|
20250122 08:46:36.819 - 8=FIXT.1.1|9=61|35=0|34=452|49=FGMLTEST|56=FMSSTEST|52=20250122-08:46:36.819|10=117|
20250122 08:47:06.819 - 8=FIXT.1.1|9=61|35=0|34=453|49=FGMLTEST|56=FMSSTEST|52=20250122-08:47:06.819|10=116|
20250122 08:47:36.819 - 8=FIXT.1.1|9=61|35=0|34=454|49=FGMLTEST|56=FMSSTEST|52=20250122-08:47:36.819|10=120|
20250122 08:48:06.819 - 8=FIXT.1.1|9=61|35=0|34=455|49=FGMLTEST|56=FMSSTEST|52=20250122-08:48:06.819|10=119|
20250122 08:48:36.819 - 8=FIXT.1.1|9=61|35=0|34=456|49=FGMLTEST|56=FMSSTEST|52=20250122-08:48:36.819|10=123|
20250122 08:49:06.819 - 8=FIXT.1.1|9=61|35=0|34=457|49=FGMLTEST|56=FMSSTEST|52=20250122-08:49:06.819|10=122|
20250122 08:49:36.819 - 8=FIXT.1.1|9=61|35=0|34=458|49=FGMLTEST|56=FMSSTEST|52=20250122-08:49:36.819|10=126|
20250122 08:50:06.819 - 8=FIXT.1.1|9=61|35=0|34=459|49=FGMLTEST|56=FMSSTEST|52=20250122-08:50:06.819|10=116|
20250122 08:50:36.819 - 8=FIXT.1.1|9=61|35=0|34=460|49=FGMLTEST|56=FMSSTEST|52=20250122-08:50:36.819|10=111|
20250122 08:51:06.819 - 8=FIXT.1.1|9=61|35=0|34=461|49=FGMLTEST|56=FMSSTEST|52=20250122-08:51:06.819|10=110|
20250122 08:51:36.943 - 8=FIXT.1.1|9=61|35=0|34=462|49=FGMLTEST|56=FMSSTEST|52=20250122-08:51:36.943|10=112|
20250122 08:52:07.953 - 8=FIXT.1.1|9=61|35=0|34=463|49=FGMLTEST|56=FMSSTEST|52=20250122-08:52:07.953|10=113|
20250122 08:52:38.461 - 8=FIXT.1.1|9=61|35=0|34=464|49=FGMLTEST|56=FMSSTEST|52=20250122-08:52:38.461|10=112|
20250122 08:53:08.819 - 8=FIXT.1.1|9=61|35=0|34=465|49=FGMLTEST|56=FMSSTEST|52=20250122-08:53:08.819|10=118|
20250122 08:53:38.819 - 8=FIXT.1.1|9=61|35=0|34=466|49=FGMLTEST|56=FMSSTEST|52=20250122-08:53:38.819|10=122|
20250122 08:54:08.819 - 8=FIXT.1.1|9=61|35=0|34=467|49=FGMLTEST|56=FMSSTEST|52=20250122-08:54:08.819|10=121|
20250122 08:54:38.819 - 8=FIXT.1.1|9=61|35=0|34=468|49=FGMLTEST|56=FMSSTEST|52=20250122-08:54:38.819|10=125|
20250122 08:55:08.819 - 8=FIXT.1.1|9=61|35=0|34=469|49=FGMLTEST|56=FMSSTEST|52=20250122-08:55:08.819|10=124|
20250122 08:55:38.819 - 8=FIXT.1.1|9=61|35=0|34=470|49=FGMLTEST|56=FMSSTEST|52=20250122-08:55:38.819|10=119|
20250122 08:56:08.819 - 8=FIXT.1.1|9=61|35=0|34=471|49=FGMLTEST|56=FMSSTEST|52=20250122-08:56:08.819|10=118|
20250122 08:56:38.820 - 8=FIXT.1.1|9=61|35=0|34=472|49=FGMLTEST|56=FMSSTEST|52=20250122-08:56:38.819|10=122|
20250122 08:57:09.819 - 8=FIXT.1.1|9=61|35=0|34=473|49=FGMLTEST|56=FMSSTEST|52=20250122-08:57:09.819|10=122|
20250122 08:57:39.819 - 8=FIXT.1.1|9=61|35=0|34=474|49=FGMLTEST|56=FMSSTEST|52=20250122-08:57:39.819|10=126|
20250122 08:58:09.819 - 8=FIXT.1.1|9=61|35=0|34=475|49=FGMLTEST|56=FMSSTEST|52=20250122-08:58:09.819|10=125|
20250122 08:58:39.819 - 8=FIXT.1.1|9=61|35=0|34=476|49=FGMLTEST|56=FMSSTEST|52=20250122-08:58:39.819|10=129|
20250122 08:59:09.819 - 8=FIXT.1.1|9=61|35=0|34=477|49=FGMLTEST|56=FMSSTEST|52=20250122-08:59:09.819|10=128|
20250122 08:59:39.819 - 8=FIXT.1.1|9=61|35=0|34=478|49=FGMLTEST|56=FMSSTEST|52=20250122-08:59:39.819|10=132|
20250122 09:00:09.819 - 8=FIXT.1.1|9=61|35=0|34=479|49=FGMLTEST|56=FMSSTEST|52=20250122-09:00:09.819|10=117|
20250122 09:00:39.819 - 8=FIXT.1.1|9=61|35=0|34=480|49=FGMLTEST|56=FMSSTEST|52=20250122-09:00:39.819|10=112|
20250122 09:01:09.820 - 8=FIXT.1.1|9=61|35=0|34=481|49=FGMLTEST|56=FMSSTEST|52=20250122-09:01:09.819|10=111|
20250122 09:01:40.819 - 8=FIXT.1.1|9=61|35=0|34=482|49=FGMLTEST|56=FMSSTEST|52=20250122-09:01:40.819|10=107|
20250122 09:02:10.819 - 8=FIXT.1.1|9=61|35=0|34=483|49=FGMLTEST|56=FMSSTEST|52=20250122-09:02:10.819|10=106|
20250122 09:02:40.819 - 8=FIXT.1.1|9=61|35=0|34=484|49=FGMLTEST|56=FMSSTEST|52=20250122-09:02:40.819|10=110|
20250122 09:03:11.719 - 8=FIXT.1.1|9=61|35=0|34=485|49=FGMLTEST|56=FMSSTEST|52=20250122-09:03:11.719|10=109|
20250122 09:03:41.819 - 8=FIXT.1.1|9=61|35=0|34=486|49=FGMLTEST|56=FMSSTEST|52=20250122-09:03:41.819|10=114|
20250122 09:04:11.819 - 8=FIXT.1.1|9=61|35=0|34=487|49=FGMLTEST|56=FMSSTEST|52=20250122-09:04:11.819|10=113|
20250122 09:04:41.819 - 8=FIXT.1.1|9=61|35=0|34=488|49=FGMLTEST|56=FMSSTEST|52=20250122-09:04:41.819|10=117|
20250122 09:05:11.819 - 8=FIXT.1.1|9=61|35=0|34=489|49=FGMLTEST|56=FMSSTEST|52=20250122-09:05:11.819|10=116|
20250122 09:05:41.819 - 8=FIXT.1.1|9=61|35=0|34=490|49=FGMLTEST|56=FMSSTEST|52=20250122-09:05:41.819|10=111|
20250122 09:06:11.819 - 8=FIXT.1.1|9=61|35=0|34=491|49=FGMLTEST|56=FMSSTEST|52=20250122-09:06:11.819|10=110|
20250122 09:06:41.819 - 8=FIXT.1.1|9=61|35=0|34=492|49=FGMLTEST|56=FMSSTEST|52=20250122-09:06:41.819|10=114|
20250122 09:07:11.819 - 8=FIXT.1.1|9=61|35=0|34=493|49=FGMLTEST|56=FMSSTEST|52=20250122-09:07:11.819|10=113|
20250122 09:07:41.819 - 8=FIXT.1.1|9=61|35=0|34=494|49=FGMLTEST|56=FMSSTEST|52=20250122-09:07:41.819|10=117|
20250122 09:08:11.819 - 8=FIXT.1.1|9=61|35=0|34=495|49=FGMLTEST|56=FMSSTEST|52=20250122-09:08:11.819|10=116|
20250122 09:08:25.481 - 8=FIXT.1.1|9=313|35=8|34=496|49=FGMLTEST|56=FMSSTEST|52=20250122-09:08:25.481|17=106506101|37=106506101|150=0|39=0|40=2|38=1|55=AGTHIAUSD|167=ESVUFR|453=4|448=7|447=C|452=1|448=FGML|447=G|452=22|448=FGML|447=G|452=73|448=163182|447=D|452=12|54=1|59=1|60=20250122-09:08:25.443|151=1|14=0|6=0|1=163182|581=2|423=3|44=50|75=20250122|10=154|
20250122 09:08:28.350 - 8=FIXT.1.1|9=313|35=8|34=497|49=FGMLTEST|56=FMSSTEST|52=20250122-09:08:28.350|17=106507101|37=106507101|150=0|39=0|40=2|38=1|55=AGTHIAUSD|167=ESVUFR|453=4|448=7|447=C|452=1|448=FGML|447=G|452=22|448=FGML|447=G|452=73|448=163182|447=D|452=12|54=1|59=1|60=20250122-09:08:28.304|151=1|14=0|6=0|1=163182|581=2|423=3|44=52|75=20250122|10=156|
20250122 09:08:58.819 - 8=FIXT.1.1|9=61|35=0|34=498|49=FGMLTEST|56=FMSSTEST|52=20250122-09:08:58.819|10=130|
20250122 09:08:59.907 - 8=FIXT.1.1|9=225|35=f|34=499|49=FGMLTEST|56=FMSSTEST|52=20250122-09:08:59.907|60=20250122-09:08:59.906|75=20250122|1301=FGML|1300=FGML|326=2|1174=6|55=AGTHIAUSD|207=FGML|48=AEA001901015|22=4|461=ESVUFR|460=5|167=ESVUFR|969=2|107=Agthia Group|10=198|
20250122 09:09:06.672 - 8=FIXT.1.1|9=321|35=8|34=500|49=FGMLTEST|56=FMSSTEST|52=20250122-09:09:06.672|17=106506101|37=106506101|150=D|39=4|40=2|38=1|55=AGTHIAUSD|167=ESVUFR|453=4|448=7|447=C|452=1|448=FGML|447=G|452=22|448=FGML|447=G|452=73|448=163182|447=D|452=12|54=1|59=1|60=20250122-09:08:25.410|151=0|14=1|6=0|378=101|1=163182|581=2|423=3|44=50|75=20250122|10=017|
20250122 09:09:17.900 - 8=FIXT.1.1|9=225|35=f|34=501|49=FGMLTEST|56=FMSSTEST|52=20250122-09:09:17.900|60=20250122-09:09:17.895|75=20250122|1301=FGML|1300=FGML|326=3|1174=2|55=AGTHIAUSD|207=FGML|48=AEA001901015|22=4|461=ESVUFR|460=5|167=ESVUFR|969=2|107=Agthia Group|10=169|
20250122 09:09:37.239 - 8=FIXT.1.1|9=294|35=8|34=502|49=FGMLTEST|56=FMSSTEST|52=20250122-09:09:37.239|17=106508101|37=106508101|150=0|39=0|40=2|38=1|55=AGTHIAUSD|167=ESVUFR|453=3|448=FGML|447=G|452=22|448=FGML|447=G|452=73|448=237477|447=D|452=3|54=1|59=1|60=20250122-09:09:37.200|151=1|14=0|6=0|1=237477|581=1|423=3|44=52|75=20250122|10=061|
20250122 09:10:07.819 - 8=FIXT.1.1|9=61|35=0|34=503|49=FGMLTEST|56=FMSSTEST|52=20250122-09:10:07.819|10=104|
20250122 09:10:37.819 - 8=FIXT.1.1|9=61|35=0|34=504|49=FGMLTEST|56=FMSSTEST|52=20250122-09:10:37.819|10=108|
20250122 09:10:50.178 - 8=FIXT.1.1|9=294|35=8|34=505|49=FGMLTEST|56=FMSSTEST|52=20250122-09:10:50.178|17=106508101|37=106508101|150=4|39=4|40=2|38=1|55=AGTHIAUSD|167=ESVUFR|453=3|448=FGML|447=G|452=22|448=FGML|447=G|452=73|448=237477|447=D|452=3|54=1|59=1|60=20250122-09:10:50.141|151=0|14=0|6=0|1=237477|581=1|423=3|44=52|75=20250122|10=051|
20250122 09:11:16.410 - 8=FIXT.1.1|9=313|35=8|34=506|49=FGMLTEST|56=FMSSTEST|52=20250122-09:11:16.410|17=106507101|37=106507101|150=4|39=4|40=2|38=1|55=AGTHIAUSD|167=ESVUFR|453=4|448=7|447=C|452=1|448=FGML|447=G|452=22|448=FGML|447=G|452=73|448=163182|447=D|452=12|54=1|59=1|60=20250122-09:11:15.395|151=0|14=0|6=0|1=163182|581=2|423=3|44=52|75=20250122|10=142|
20250122 09:11:46.819 - 8=FIXT.1.1|9=61|35=0|34=507|49=FGMLTEST|56=FMSSTEST|52=20250122-09:11:46.819|10=112|
20250122 09:12:16.819 - 8=FIXT.1.1|9=61|35=0|34=508|49=FGMLTEST|56=FMSSTEST|52=20250122-09:12:16.819|10=111|
20250122 09:12:46.819 - 8=FIXT.1.1|9=61|35=0|34=509|49=FGMLTEST|56=FMSSTEST|52=20250122-09:12:46.819|10=115|
20250122 09:13:16.819 - 8=FIXT.1.1|9=61|35=0|34=510|49=FGMLTEST|56=FMSSTEST|52=20250122-09:13:16.819|10=105|
20250122 09:13:23.397 - 8=FIXT.1.1|9=313|35=8|34=511|49=FGMLTEST|56=FMSSTEST|52=20250122-09:13:23.397|17=106509101|37=106509101|150=0|39=0|40=2|38=1|55=AGTHIAUSD|167=ESVUFR|453=4|448=7|447=C|452=1|448=FGML|447=G|452=22|448=FGML|447=G|452=73|448=163182|447=D|452=12|54=1|59=1|60=20250122-09:13:23.361|151=1|14=0|6=0|1=163182|581=2|423=3|44=50|75=20250122|10=141|
20250122 09:13:27.258 - 8=FIXT.1.1|9=313|35=8|34=512|49=FGMLTEST|56=FMSSTEST|52=20250122-09:13:27.258|17=106510101|37=106510101|150=0|39=0|40=2|38=1|55=AGTHIAUSD|167=ESVUFR|453=4|448=7|447=C|452=1|448=FGML|447=G|452=22|448=FGML|447=G|452=73|448=163182|447=D|452=12|54=1|59=1|60=20250122-09:13:27.227|151=1|14=0|6=0|1=163182|581=2|423=3|44=52|75=20250122|10=133|
20250122 09:13:44.001 - 8=FIXT.1.1|9=225|35=f|34=513|49=FGMLTEST|56=FMSSTEST|52=20250122-09:13:44.001|60=20250122-09:13:44.000|75=20250122|1301=FGML|1300=FGML|326=2|1174=6|55=AGTHIAUSD|207=FGML|48=AEA001901015|22=4|461=ESVUFR|460=5|167=ESVUFR|969=2|107=Agthia Group|10=135|
20250122 09:13:50.252 - 8=FIXT.1.1|9=321|35=8|34=514|49=FGMLTEST|56=FMSSTEST|52=20250122-09:13:50.252|17=106509101|37=106509101|150=D|39=4|40=2|38=1|55=AGTHIAUSD|167=ESVUFR|453=4|448=7|447=C|452=1|448=FGML|447=G|452=22|448=FGML|447=G|452=73|448=163182|447=D|452=12|54=1|59=1|60=20250122-09:13:23.320|151=0|14=1|6=0|378=101|1=163182|581=2|423=3|44=50|75=20250122|10=010|
20250122 09:14:02.513 - 8=FIXT.1.1|9=225|35=f|34=515|49=FGMLTEST|56=FMSSTEST|52=20250122-09:14:02.513|60=20250122-09:14:02.513|75=20250122|1301=FGML|1300=FGML|326=3|1174=2|55=AGTHIAUSD|207=FGML|48=AEA001901015|22=4|461=ESVUFR|460=5|167=ESVUFR|969=2|107=Agthia Group|10=141|
20250122 09:14:18.049 - 8=FIXT.1.1|9=294|35=8|34=516|49=FGMLTEST|56=FMSSTEST|52=20250122-09:14:18.049|17=106511101|37=106511101|150=0|39=0|40=2|38=1|55=AGTHIAUSD|167=ESVUFR|453=3|448=FGML|447=G|452=22|448=FGML|447=G|452=73|448=237477|447=D|452=3|54=2|59=1|60=20250122-09:14:17.999|151=1|14=0|6=0|1=237477|581=1|423=3|44=52|75=20250122|10=068|
20250122 09:14:18.051 - 8=FIXT.1.1|9=295|35=8|34=517|49=FGMLTEST|56=FMSSTEST|52=20250122-09:14:18.051|17=106511101|37=106511101|150=5|39=2|40=2|38=1|55=AGTHIAUSD|167=ESVUFR|453=3|448=FGML|447=G|452=22|448=FGML|447=G|452=73|448=237477|447=D|452=3|54=2|59=1|60=20250122-09:14:17.999|151=0|14=1|6=52|1=237477|581=1|423=3|44=52|75=20250122|10=125|
20250122 09:14:18.053 - 8=FIXT.1.1|9=314|35=8|34=518|49=FGMLTEST|56=FMSSTEST|52=20250122-09:14:18.053|17=106510101|37=106510101|150=5|39=2|40=2|38=1|55=AGTHIAUSD|167=ESVUFR|453=4|448=7|447=C|452=1|448=FGML|447=G|452=22|448=FGML|447=G|452=73|448=163182|447=D|452=12|54=1|59=1|60=20250122-09:14:17.999|151=0|14=1|6=52|1=163182|581=2|423=3|44=52|75=20250122|10=212|
20250122 09:14:18.055 - 8=FIXT.1.1|9=492|35=AE|34=519|49=FGMLTEST|56=FMSSTEST|52=20250122-09:14:18.055|32=1|31=52|423=3|1116=1|1117=FGML|1118=D|1119=73|55=AGTHIAUSD|167=ESVUFR|60=20250122-09:14:17.999|487=0|1003=106510101-106511101|1301=FGML|1300=FGML|552=2|54=2|453=3|448=FGML|447=G|452=22|448=FGML|447=G|452=73|448=237477|447=D|452=3|1=237477|581=1|1057=Y|37=106511101|151=0|54=1|453=4|448=7|447=C|452=1|448=FGML|447=G|452=22|448=FGML|447=G|452=73|448=163182|447=D|452=12|1=163182|581=2|1057=N|37=106510101|151=0|75=20250122|574=4|10=176|
20250122 09:14:48.819 - 8=FIXT.1.1|9=61|35=0|34=520|49=FGMLTEST|56=FMSSTEST|52=20250122-09:14:48.819|10=112|
20250122 09:15:18.820 - 8=FIXT.1.1|9=61|35=0|34=521|49=FGMLTEST|56=FMSSTEST|52=20250122-09:15:18.820|10=103|
20250122 09:15:49.819 - 8=FIXT.1.1|9=61|35=0|34=522|49=FGMLTEST|56=FMSSTEST|52=20250122-09:15:49.819|10=116|
20250122 09:16:19.819 - 8=FIXT.1.1|9=61|35=0|34=523|49=FGMLTEST|56=FMSSTEST|52=20250122-09:16:19.819|10=115|
20250122 09:16:49.819 - 8=FIXT.1.1|9=61|35=0|34=524|49=FGMLTEST|56=FMSSTEST|52=20250122-09:16:49.819|10=119|
20250122 09:17:19.819 - 8=FIXT.1.1|9=61|35=0|34=525|49=FGMLTEST|56=FMSSTEST|52=20250122-09:17:19.819|10=118|
20250122 09:17:49.307 - 8=FIXT.1.1|9=313|35=8|34=526|49=FGMLTEST|56=FMSSTEST|52=20250122-09:17:49.307|17=106512101|37=106512101|150=0|39=0|40=2|38=1|55=AGTHIAUSD|167=ESVUFR|453=4|448=7|447=C|452=1|448=FGML|447=G|452=22|448=FGML|447=G|452=73|448=163182|447=D|452=12|54=1|59=1|60=20250122-09:17:49.274|151=1|14=0|6=0|1=163182|581=2|423=3|44=56|75=20250122|10=159|
20250122 09:18:19.819 - 8=FIXT.1.1|9=61|35=0|34=527|49=FGMLTEST|56=FMSSTEST|52=20250122-09:18:19.819|10=121|
20250122 09:18:49.819 - 8=FIXT.1.1|9=61|35=0|34=528|49=FGMLTEST|56=FMSSTEST|52=20250122-09:18:49.819|10=125|
20250122 09:19:19.819 - 8=FIXT.1.1|9=61|35=0|34=529|49=FGMLTEST|56=FMSSTEST|52=20250122-09:19:19.819|10=124|
20250122 09:19:49.819 - 8=FIXT.1.1|9=61|35=0|34=530|49=FGMLTEST|56=FMSSTEST|52=20250122-09:19:49.819|10=119|
20250122 09:20:01.108 - 8=FIXT.1.1|9=344|35=8|34=531|49=FGMLTEST|56=FMSSTEST|52=20250122-09:20:01.108|17=OpenOrderAutoState-106512101-1.000000003|37=106512101|150=3|39=3|40=2|38=1|55=AGTHIAUSD|167=ESVUFR|453=4|448=7|447=C|452=1|448=FGML|447=G|452=22|448=FGML|447=G|452=73|448=163182|447=D|452=12|54=1|59=1|60=20250122-09:17:49.240|151=0|14=0|6=0|1=163182|581=2|423=3|44=56|75=20250122|10=030|
20250122 09:20:01.108 - 8=FIXT.1.1|9=232|35=f|34=532|49=FGMLTEST|56=FMSSTEST|52=20250122-09:20:01.108|60=20250122-09:20:01.107|75=20250122|1301=FGML|1300=FGML|31=52|326=18|1174=6|55=AGTHIAUSD|207=FGML|48=AEA001901015|22=4|461=ESVUFR|460=5|167=ESVUFR|969=2|107=Agthia Group|10=196|
20250122 09:20:01.109 - 8=FIXT.1.1|9=241|35=f|34=533|49=FGMLTEST|56=FMSSTEST|52=20250122-09:20:01.109|60=20250122-09:20:01.107|75=20250122|1301=FGML|1300=FGML|31=52|58=CLOSING_PRICE|326=5|55=AGTHIAUSD|207=FGML|48=AEA001901015|22=4|461=ESVUFR|460=5|167=ESVUFR|969=2|107=Agthia Group|10=221|
20250122 09:20:31.819 - 8=FIXT.1.1|9=61|35=0|34=534|49=FGMLTEST|56=FMSSTEST|52=20250122-09:20:31.819|10=106|
20250122 09:21:01.819 - 8=FIXT.1.1|9=61|35=0|34=535|49=FGMLTEST|56=FMSSTEST|52=20250122-09:21:01.819|10=105|
20250122 09:21:32.602 - 8=FIXT.1.1|9=61|35=0|34=536|49=FGMLTEST|56=FMSSTEST|52=20250122-09:21:32.602|10=100|
20250122 09:22:01.657 - 8=FIXT.1.1|9=262|35=d|34=537|49=FGMLTEST|56=FMSSTEST|52=20250122-09:22:01.657|60=20250122-09:22:01.654|75=20250122|1310=1|1301=FGML|1300=FGML|1205=1|1206=0|1207=9999999999.99999|1208=2|55=AGTHIAUSD|207=FGML|48=AEA001901015|22=4|461=ESVUFR|460=5|167=ESVUFR|969=2|107=Agthia Group|10=188|
20250122 09:22:01.659 - 8=FIXT.1.1|9=226|35=f|34=538|49=FGMLTEST|56=FMSSTEST|52=20250122-09:22:01.659|60=20250122-09:22:01.655|75=20250122|1301=FGML|1300=FGML|326=21|1174=6|55=AGTHIAUSD|207=FGML|48=AEA001901015|22=4|461=ESVUFR|460=5|167=ESVUFR|969=2|107=Agthia Group|10=213|
20250122 09:22:01.660 - 8=FIXT.1.1|9=397|35=8|34=539|49=FGMLTEST|56=FMSSTEST|52=20250122-09:22:01.660|17=AutoState-SessionOpen-106512101638731008000000000|37=106512101|150=D|39=0|40=2|38=1|55=AGTHIAUSD|167=ESVUFR|453=4|448=7|447=C|452=1|448=FGML|447=G|452=22|448=FGML|447=G|452=73|448=163182|447=D|452=12|54=1|59=1|60=20250122-09:17:49.240|151=1|14=0|6=0|378=1|1=163182|581=2|423=3|44=56|75=20250122|768=1|770=2|769=20250122-09:17:49.240|10=228|
20250122 09:22:31.819 - 8=FIXT.1.1|9=61|35=0|34=540|49=FGMLTEST|56=FMSSTEST|52=20250122-09:22:31.819|10=105|
20250122 09:23:01.819 - 8=FIXT.1.1|9=61|35=0|34=541|49=FGMLTEST|56=FMSSTEST|52=20250122-09:23:01.819|10=104|
20250122 09:23:32.646 - 8=FIXT.1.1|9=61|35=0|34=542|49=FGMLTEST|56=FMSSTEST|52=20250122-09:23:32.646|10=107|
20250122 09:24:02.819 - 8=FIXT.1.1|9=61|35=0|34=543|49=FGMLTEST|56=FMSSTEST|52=20250122-09:24:02.819|10=108|
20250122 09:24:32.819 - 8=FIXT.1.1|9=61|35=0|34=544|49=FGMLTEST|56=FMSSTEST|52=20250122-09:24:32.819|10=112|
20250122 09:25:01.760 - 8=FIXT.1.1|9=232|35=f|34=545|49=FGMLTEST|56=FMSSTEST|52=20250122-09:25:01.760|60=20250122-09:25:01.759|75=20250122|1301=FGML|1300=FGML|31=60|326=17|1174=6|55=AGTHIAUSD|207=FGML|48=AEA001901015|22=4|461=ESVUFR|460=5|167=ESVUFR|969=2|107=Agthia Group|10=225|
20250122 09:25:01.762 - 8=FIXT.1.1|9=241|35=f|34=546|49=FGMLTEST|56=FMSSTEST|52=20250122-09:25:01.762|60=20250122-09:25:01.759|75=20250122|1301=FGML|1300=FGML|31=60|58=OPENING_PRICE|326=5|55=AGTHIAUSD|207=FGML|48=AEA001901015|22=4|461=ESVUFR|460=5|167=ESVUFR|969=2|107=Agthia Group|10=253|
20250122 09:25:31.819 - 8=FIXT.1.1|9=61|35=0|34=547|49=FGMLTEST|56=FMSSTEST|52=20250122-09:25:31.819|10=115|
20250122 09:26:03.083 - 8=FIXT.1.1|9=61|35=0|34=548|49=FGMLTEST|56=FMSSTEST|52=20250122-09:26:03.083|10=109|
20250122 09:26:03.086 - 8=FIXT.1.1|9=61|35=0|34=549|49=FGMLTEST|56=FMSSTEST|52=20250122-09:26:03.085|10=112|
